{"abi":[{"type":"constructor","inputs":[{"name":"_poolManager","type":"address","internalType":"contract IPoolManager"},{"name":"_wrappedNative","type":"address","internalType":"address"},{"name":"_nativeCurrencyLabelBytes","type":"bytes32","internalType":"bytes32"}],"stateMutability":"nonpayable"},{"type":"function","name":"currencyRatioPriority","inputs":[{"name":"currency","type":"address","internalType":"address"}],"outputs":[{"name":"","type":"int256","internalType":"int256"}],"stateMutability":"view"},{"type":"function","name":"flipRatio","inputs":[{"name":"currency0","type":"address","internalType":"address"},{"name":"currency1","type":"address","internalType":"address"}],"outputs":[{"name":"","type":"bool","internalType":"bool"}],"stateMutability":"view"},{"type":"function","name":"nativeCurrencyLabel","inputs":[],"outputs":[{"name":"","type":"string","internalType":"string"}],"stateMutability":"view"},{"type":"function","name":"poolManager","inputs":[],"outputs":[{"name":"","type":"address","internalType":"contract IPoolManager"}],"stateMutability":"view"},{"type":"function","name":"tokenURI","inputs":[{"name":"positionManager","type":"address","internalType":"contract IPositionManager"},{"name":"tokenId","type":"uint256","internalType":"uint256"}],"outputs":[{"name":"","type":"string","internalType":"string"}],"stateMutability":"view"},{"type":"function","name":"wrappedNative","inputs":[],"outputs":[{"name":"","type":"address","internalType":"address"}],"stateMutability":"view"},{"type":"error","name":"InvalidAddressLength","inputs":[{"name":"len","type":"uint256","internalType":"uint256"}]},{"type":"error","name":"InvalidTokenId","inputs":[{"name":"tokenId","type":"uint256","internalType":"uint256"}]},{"type":"error","name":"StringsInsufficientHexLength","inputs":[{"name":"value","type":"uint256","internalType":"uint256"},{"name":"length","type":"uint256","internalType":"uint256"}]}],"bytecode":{"object":"0x60e0346100b357601f615fa538819003918201601f19168301916001600160401b038311848410176100b7578084926060946040528339810103126100b3578051906001600160a01b03821682036100b3576020810151906001600160a01b03821682036100b357604001519160c05260805260a052604051615ed990816100cc8239608051818181607a015261401a015260a0518181816141410152614197015260c0518181816101530152613e810152f35b5f80fd5b634e487b7160e01b5f52604160045260245ffdfe610440806040526004361015610013575f80fd5b5f60a0525f3560e01c908163166c597814613ed757508063b7af3cdc14613eb0578063dc4c90d314613e6c578063dee91a2c14613e23578063e9dc6375146100af5763eb6d3a1114610063575f80fd5b346100a95760a0513660031901126100a9576040517f00000000000000000000000000000000000000000000000000000000000000006001600160a01b03168152602090f35b60a05180fd5b34613d3d576040366003190112613d3d576004356001600160a01b03811690819003613d3d57602460c081359260405192838092637ba03aad60e01b82528660048301525afa8015613d49575f915f91613d67575b5066ffffffffffffff19811615613d545760a08220604051602081019182526006604082015260408152610139606082614057565b519020604051631e2eaeaf60e01b815260048101919091527f00000000000000000000000000000000000000000000000000000000000000006001600160a01b031693909290602084602481885afa938415613d49575f94613d11575b50815160208301516001600160a01b039182169691166101b587613f3f565b6101be82613f3f565b129687159188613d0a5780925b15613d025750955b6101e46101de614116565b836141e0565b956101f66101f0614116565b896141e0565b6101ff84614369565b976102098a614369565b99606089015160020b9562ffffff60408b01511699608060018060a01b0391015116986040516102c0526101e06102c051016102c051811067ffffffffffffffff821117613c96576040526102c05152600160a01b60019003166102c05160200152600160a01b60019003166102c051604001526102c051606001526102c051608001526102c05160a0019660ff1687526102c05160c0019760ff1688526102c05160e0019889528060081c60020b6102c051610100015260201c60020b6102c051610120015260a01c60020b6102c05161014001526102c0516101600152826102c05161018001526102c0516101a001526102c0516101c0015261030d906146a4565b906102c0516060015161031f9061493f565b916102c051608001516103319061493f565b93855115805f149660036020600298602a82849a816103be61046d9f9c60019b61038a849f9c859d613cf1576101006102c051015160020b5b6101606102c051015160020b9160ff85511690159260ff87511692614ea9565b9a51158015613cdf576101206102c051015160020b915b60ff806101606102c051015160020b925116921594511692614ea9565b9a6040516103e0526902ab734b9bbb0b81016960b51b826103e0510152805191829101856103e051015e6103e05101906201016960ed1b84830152805192839101602d83015e010190602f60f81b84830152805192839101600483015e0101906201016960ed1b84830152805192839101600483015e010190611e1f60f11b84830152805192839101600583015e01015f828201526103e051900301601f1981016103e051526103e051614057565b6105fa6002605961048460606102c051015161493f565b61049460806102c051015161493f565b90600160206104b1828060a01b036101a06102c051015116615598565b604051610400527f54686973204e465420726570726573656e74732061206c697175696469747920826104005101527f706f736974696f6e20696e206120556e69737761702076342000000000000000604061040051015285828551968187019780898561040051015e610400510190602d60f81b84830152805192839101605a83015e010190660103837b7b617160cd1b848301527f546865206f776e6572206f662074686973204e46542063616e206d6f6469667960088301527f206f722072656465656d2074686520706f736974696f6e2e5c6e00000000000060288301527f5c6e506f6f6c204d616e6167657220416464726573733a2000000000000000006042830152805192839101605a83015e010190612e3760f11b84830152518092605b83015e01015f8282015261040051900301601f198101610400515261040051614057565b61086a60ac600c8060206106116102c05151614a45565b60108261062460806102c051015161493f565b6102c0518201516001600160a01b031680613ccd5750600a826106456143ea565b925b6102c051604001516001600160a01b031680613cbc57506002826106696143ea565b6102c0516101c001516001600160a01b031680613caa5750602a8261068c61440e565b955b816106a562ffffff6101806102c0510151166146a4565b9a6040516103c0526901020b2323932b9b99d160b51b826103c0510152805191829101856103c051015e6103c0510190612e3760f11b84830152805192839101602c83015e0101906901020b2323932b9b99d160b51b848301528051928391018d83015e0101906f02e372437b7b59020b2323932b9b99d160851b84830152805192839101601a83015e0101906b02e372332b2902a34b2b91d160a51b84830152805192839101601c83015e0101906b02e372a37b5b2b71024a21d160a51b84830152805192839101601883015e0101632e372e3760e11b828201527fe29aa0efb88f20444953434c41494d45523a204475652064696c6967656e636560108201527f20697320696d7065726174697665207768656e20617373657373696e6720746860308201527f6973204e46542e204d616b6520737572652063757272656e637920616464726560508201527f73736573206d61746368207468652065787065637465642063757272656e636960708201527f65732c2061732063757272656e63792073796d626f6c73206d6179206265206960908201526736b4ba30ba32b21760c11b60b08201526103c051900301608c81016103c05152016103c051614057565b6102c05160200151610884906001600160a01b0316615598565b6102c0516040015161089e906001600160a01b0316615598565b610320526102c0516101c08101516001600160a01b03166102e05260608101516080820151610180909201519091906108db9062ffffff166146a4565b6101006102c051015160020b916101206102c051015160020b610360526101606102c051015160020b610380526109216101406102c051015160020b6103605185615654565b610420526102c051519361094360018060a01b0360206102c05101511661567b565b610300526102c05160400151610961906001600160a01b031661567b565b6102c0516020015190969061097e906001600160a01b03166156da565b610260526102c0516040015161099c906001600160a01b03166156da565b610280526102c0516020810151905160ff916109bd919060101c8316614b8d565b6101026103a08190529190068181029181159183041417156138d55760ff610340526109f16109f69161034051900461463e565b614a45565b6102a0526102c051604081015190516103405191610a2d919060101c831671ffffffffffffffffffffffffffffffffffff16614b8d565b6101806102408190529190068181029181159183041417156138d5576103405115613c29576109f1610a649161034051900461464c565b610220526102c05160208181015191516103405192610a8e921c83166001600160801b0316614b8d565b6103a0519190068181029181159183041417156138d5576103405115613c29576109f1610ac09161034051900461463e565b610200526102c051604081015190516103405191610aec919060201c83166001600160801b0316614b8d565b610240519190068181029181159183041417156138d5576103405115613c29576109f1610b1e9161034051900461464c565b6101e0526102c051602081015190516103405191610b4a919060301c83166001600160701b0316614b8d565b6103a0519190068181029181159183041417156138d5576103405115613c29576109f1610b7c9161034051900461463e565b6101c0526102c051604081015190516103405191610ba8919060301c83166001600160701b0316614b8d565b610240519190068181029181159183041417156138d5576103405115613c29576109f1610bda9161034051900461464c565b6101a052604051610180526102a0610180510161018051811067ffffffffffffffff821117613c965760405261018051526103205160206101805101526102e05160406101805101526060610180510152608061018051015260a061018051015260c06101805101526103605160e061018051015261038051610100610180510152610420515f0b6101206101805101526101406101805101526103005161016061018051015261024051610180510152610260516101a0610180510152610280516101c06101805101526102a0516101e061018051015261022051610200610180510152610200516102206101805101526101e0516102406101805101526101c0516102606101805101526101a051610280610180510152611c906101e4610655603f6020610de76040517f3c7376672077696474683d2732393027206865696768743d2735303027207669838201527f6577426f783d2730203020323930203530302720786d6c6e733d27687474703a60408201527f2f2f7777772e77332e6f72672f323030302f737667273e3c726563742077696460608201527f74683d27323930707827206865696768743d273530307078272066696c6c3d276080820152602360f81b60a0820152610de2600960a1836103005151808861030051018484015e81016813979f1e17b9bb339f60b91b838201520301601619810184520182614057565b614ba0565b603e82610e9381610de2600960136101e0610180510151600685610200610180510151816102405161018051015191604051998a96610e27828901615778565b90805192839101825e019065272063793d2760d01b82528051928391018683015e0190722720723d273132307078272066696c6c3d272360681b84830152805192839101601983015e01016813979f1e17b9bb339f60b91b838201520301601619810184520182614057565b8282610ed181610de260096013610220610180510151600685610240610180510151816101a061018051015191604051998a96610e27828901615778565b60f382610f7c81610de260096013610260610180510151600685610280610180510151816101c061018051015191604051998a96610f10828901615778565b90805192839101825e019065272063793d2760d01b82528051928391018683015e0190722720723d273130307078272066696c6c3d272360681b84830152805192839101601983015e01016813979f1e17b9bb339f60b91b838201520301601619810184520182614057565b95816101606101805101519a60405160c0527f3c7376672077696474683d2232393022206865696768743d22353030222076698260c05101527f6577426f783d2230203020323930203530302220786d6c6e733d22687474703a604060c0510152751797bbbbbb973b999737b933979918181817b9bb339160511b606060c05101527f20786d6c6e733a786c696e6b3d27687474703a2f2f7777772e77332e6f72672f607660c05101526b189c9c9c97bc3634b735939f60a11b609660c0510152651e3232b3399f60d11b60a260c05101527f3c66696c7465722069643d226631223e3c6665496d61676520726573756c743d60a860c05101527f2270302220786c696e6b3a687265663d22646174613a696d6167652f7376672b60c860c05101526a1e1b5b0ed8985cd94d8d0b60aa1b60e860c05101528051918291018560c051015e60c05101907f222f3e3c6665496d61676520726573756c743d2270312220786c696e6b3a6872848301527f65663d22646174613a696d6167652f7376672b786d6c3b6261736536342c000061011383015280519283910161013183015e0101907f222f3e3c6665496d61676520726573756c743d2270322220786c696e6b3a6872848301527f65663d22646174613a696d6167652f7376672b786d6c3b6261736536342c0000605e830152805192839101607c83015e010190631110179f60e11b848301527f3c6665496d61676520726573756c743d2270332220786c696e6b3a687265663d60428301527f22646174613a696d6167652f7376672b786d6c3b6261736536342c00000000006062830152805192839101607d83015e7f22202f3e3c6665426c656e64206d6f64653d226f7665726c61792220696e3d22910191909101848101919091527f70302220696e323d22703122202f3e3c6665426c656e64206d6f64653d226578605f8201527f636c7573696f6e2220696e323d22703222202f3e3c6665426c656e64206d6f64607f8201527f653d226f7665726c61792220696e323d2270332220726573756c743d22626c65609f8201527f6e644f757422202f3e3c6665476175737369616e426c7572200000000000000060bf8201527f696e3d22626c656e644f75742220737464446576696174696f6e3d223432222060d88201527f2f3e3c2f66696c7465723e203c636c6970506174682069643d22636f726e657260f88201527f73223e3c726563742077696474683d2232393022206865696768743d223530306101188201527f222072783d223432222072793d22343222202f3e3c2f636c6970506174683e006101388201527f3c706174682069643d22746578742d706174682d612220643d224d34302031326101578201527f20483235302041323820323820302030203120323738203430205634363020416101778201527f32382032382030203020312032353020343838204834302041323820323820306101978201527f20302031203132203436302056343020413238203238203020302031203430206101b7820152671899103d1110179f60c11b6101d78201527f3c706174682069643d226d696e696d61702220643d224d3233342034343443326101df8201527f3334203435372e393439203234322e323120343633203235332034363322202f6101ff820152601f60f91b61021f8201527f3c66696c7465722069643d22746f702d726567696f6e2d626c7572223e3c66656102208201527f476175737369616e426c757220696e3d22536f757263654772617068696322206102408201527f737464446576696174696f6e3d22323422202f3e3c2f66696c7465723e0000006102608201527f3c6c696e6561724772616469656e742069643d22677261642d7570222078313d61027d8201527f2231222078323d2230222079313d2231222079323d2230223e3c73746f70206f61029d8201527f66667365743d22302e30222073746f702d636f6c6f723d2277686974652220736102bd820152713a37b816b7b830b1b4ba3c9e91189110179f60711b6102dd8201527f3c73746f70206f66667365743d222e39222073746f702d636f6c6f723d2277686102ef8201527f697465222073746f702d6f7061636974793d223022202f3e3c2f6c696e65617261030f8201526823b930b234b2b73a1f60b91b61032f8201527f3c6c696e6561724772616469656e742069643d22677261642d646f776e2220786103388201527f313d2230222078323d2231222079313d2230222079323d2231223e3c73746f706103588201527f206f66667365743d22302e30222073746f702d636f6c6f723d227768697465226103788201527f2073746f702d6f7061636974793d223122202f3e3c73746f70206f66667365746103988201527f3d22302e39222073746f702d636f6c6f723d227768697465222073746f702d6f6103b88201527f7061636974793d223022202f3e3c2f6c696e6561724772616469656e743e00006103d88201527f3c6d61736b2069643d22666164652d757022206d61736b436f6e74656e74556e6103f68201527f6974733d226f626a656374426f756e64696e67426f78223e3c726563742077696104168201527f6474683d223122206865696768743d2231222066696c6c3d2275726c282367726104368201527030b216bab8149110179f1e17b6b0b9b59f60791b6104568201527f3c6d61736b2069643d22666164652d646f776e22206d61736b436f6e74656e746104678201527f556e6974733d226f626a656374426f756e64696e67426f78223e3c72656374206104878201527f77696474683d223122206865696768743d2231222066696c6c3d2275726c28236104a78201527433b930b216b237bbb7149110179f1e17b6b0b9b59f60591b6104c78201527f3c6d61736b2069643d226e6f6e6522206d61736b436f6e74656e74556e6974736104dc8201527f3d226f626a656374426f756e64696e67426f78223e3c726563742077696474686104fc8201527f3d223122206865696768743d2231222066696c6c3d22776869746522202f3e3c61051c8201526517b6b0b9b59f60d11b61053c8201527f3c6c696e6561724772616469656e742069643d22677261642d73796d626f6c226105428201527f3e3c73746f70206f66667365743d22302e37222073746f702d636f6c6f723d226105628201527f7768697465222073746f702d6f7061636974793d223122202f3e3c73746f70206105828201527f6f66667365743d222e3935222073746f702d636f6c6f723d22776869746522206105a28201527f73746f702d6f7061636974793d223022202f3e3c2f6c696e65617247726164696105c28201526332b73a1f60e11b6105e28201527f3c6d61736b2069643d22666164652d73796d626f6c22206d61736b436f6e74656105e68201527f6e74556e6974733d227573657253706163654f6e557365223e3c7265637420776106068201527f696474683d22323930707822206865696768743d223230307078222066696c6c6106268201527f3d2275726c2823677261642d73796d626f6c2922202f3e3c2f6d61736b3e3c2f610646820152643232b3399f60d91b6106668201527f3c6720636c69702d706174683d2275726c2823636f726e65727329223e00000061066b8201526b1e3932b1ba103334b6361e9160a11b610688820152815192909183910161069483015e01017f2220783d223070782220793d22307078222077696474683d223239307078222082820152703432b4b3b43a1e911a9818383c1110179f60791b6106758201527f3c72656374207374796c653d2266696c7465723a2075726c28236631292220786106868201527f3d223070782220793d22307078222077696474683d22323930707822206865696106a68201526d33b43a1e911a9818383c1110179f60911b6106c68201527f203c67207374796c653d2266696c7465723a75726c2823746f702d726567696f6106d48201527f6e2d626c7572293b207472616e73666f726d3a7363616c6528312e35293b20746106f48201527f72616e73666f726d2d6f726967696e3a63656e74657220746f703b223e0000006107148201527f3c726563742066696c6c3d226e6f6e652220783d223070782220793d223070786107318201527f222077696474683d22323930707822206865696768743d22353030707822202f610751820152601f60f91b6107718201527f3c656c6c697073652063783d22353025222063793d22307078222072783d22316107728201527f38307078222072793d223132307078222066696c6c3d222330303022206f70616107928201527131b4ba3c9e9118171c1a9110179f1e17b39f60711b6107b28201527f3c7265637420783d22302220793d2230222077696474683d22323930222068656107c48201527f696768743d22353030222072783d223432222072793d223432222066696c6c3d6107e48201527f227267626128302c302c302c302922207374726f6b653d2272676261283235356108048201527416191a9a96191a9a96181719149110179f1e17b39f60591b61082482015260c0519003016101c4810160c051520160c051614057565b61222e608b6005610100610180515160206101805101518360606101805101519160806101805101519060405186527f3c7465787420746578742d72656e646572696e673d226f7074696d697a6553706020875101526432b2b2111f60d91b6040875101527f3c74657874506174682073746172744f66667365743d222d31303025222066696045875101527f6c6c3d2277686974652220666f6e742d66616d696c793d2227436f75726965726065875101527f204e6577272c206d6f6e6f73706163652220666f6e742d73697a653d223130706085875101527f782220786c696e6b3a687265663d2223746578742d706174682d61223e00000060a5875101528281516020830190808260c28b51015e8851019264010714051160dd1b60c285015260c285516020870195818760c783015e0101905f80516020615dc4833981519152848301525f80516020615e4483398151915260258301527f6f3d22313030252220626567696e3d22307322206475723d223330732220726560458301527f70656174436f756e743d22696e646566696e69746522202f3e0000000000000060658301527f3c2f74657874506174683e203c74657874506174682073746172744f66667365607e8301527f743d223025222066696c6c3d2277686974652220666f6e742d66616d696c793d609e8301527f2227436f7572696572204e6577272c206d6f6e6f73706163652220666f6e742d60be8301527f73697a653d22313070782220786c696e6b3a687265663d2223746578742d706160de830152653a3416b0911f60d11b60fe83015251809261010483015e01019164010714051160dd1b6103405184015251809161010484015e610340519101015f80516020615dc4833981519152828201525f80516020615e4483398151915260258201527f6f3d22313030252220626567696e3d22307322206475723d223330732220726560458201527f70656174436f756e743d22696e646566696e69746522202f3e203c2f746578746065820152642830ba341f60d91b60858201527f3c74657874506174682073746172744f66667365743d22353025222066696c6c608a8201527f3d2277686974652220666f6e742d66616d696c793d2227436f7572696572204e60aa8201527f6577272c206d6f6e6f73706163652220666f6e742d73697a653d22313070782260ca8201527f20786c696e6b3a687265663d2223746578742d706174682d61223e000000000060ea8201528184516020860192818461010583015e01019364010714051160dd1b868601528584516020860196818861010583015e0101905f80516020615dc4833981519152848301525f80516020615e4483398151915260258301527f6f3d22313030252220626567696e3d22307322206475723d223330732200000060458301527f20726570656174436f756e743d22696e646566696e69746522202f3e3c2f746560628301527f7874506174683e3c74657874506174682073746172744f66667365743d222d3560828301527f3025222066696c6c3d2277686974652220666f6e742d66616d696c793d22274360a28301527f6f7572696572204e6577272c206d6f6e6f73706163652220666f6e742d73697a60c28301527f653d22313070782220786c696e6b3a687265663d2223746578742d706174682d60e28301526230911f60e91b6103a05183015251809261010583015e01019064010714051160dd1b8483015251809261010583015e01015f80516020615dc4833981519152828201525f80516020615e4483398151915260258201527f6f3d22313030252220626567696e3d22307322206475723d223330732220726560458201527f70656174436f756e743d22696e646566696e69746522202f3e3c2f746578745060658201526a30ba341f1e17ba32bc3a1f60a91b608582015261010051900301606b810161010051520161010051614057565b60206124cd607e60776060610180510151600185608061018051015160ed8260a0610180510151926040519a8b977f3c67206d61736b3d2275726c2823666164652d73796d626f6c29223e3c726563828a01527f742066696c6c3d226e6f6e652220783d223070782220793d223070782220776960408a01527f6474683d22323930707822206865696768743d22323030707822202f3e203c7460608a01527f65787420793d22373070782220783d2233327078222066696c6c3d227768697460808a01527f652220666f6e742d66616d696c793d2227436f7572696572204e6577272c206d60a08a01527f6f6e6f73706163652220666f6e742d7765696768743d223230302220666f6e7460c08a01526c16b9b4bd329e91199b383c111f60991b60e08a0152805191829101858a015e870190602f60f81b8483015280519283910160ee83015e0101907f3c2f746578743e3c7465787420793d2231313570782220783d22333270782220848301527f66696c6c3d2277686974652220666f6e742d66616d696c793d2227436f75726960218301527f6572204e6577272c206d6f6e6f73706163652220666f6e742d7765696768743d60418301527f223230302220666f6e742d73697a653d2233367078223e0000000000000000006061830152805192839101607883015e01016a1e17ba32bc3a1f1e17b39f60a91b838201527f3c7265637420783d2231362220793d223136222077696474683d22323538222060828201527f6865696768743d22343638222072783d223236222072793d223236222066696c60a28201527f6c3d227267626128302c302c302c302922207374726f6b653d2272676261283260c2820152721a9a96191a9a96191a9a96181719149110179f60691b60e28201520301605e810184520182614057565b60c061018051015160020b9060e061018051015160020b9161010061018051015160020b906101206101805101515f0b90600182145f14613c3d57604051612516604082614057565b6008815267023666164652d75760c41b6020820152945b03627fffff198112627fffff8213176138d55760020b908215613c2957627fffff1982145f198414166138d557612a23926048920560020b60048113613a2d575060796020604051612580604082614057565b601a81527f4d3120314334312034312031303520313035203134352031343500000000000082820152925b60406101608190528051906125c09082614057565b6002815261373360f01b83820190815261016051805193906125e29085614057565b60038452848401906203139360ec1b82526101605151926126066101605185614057565b60038452868401926232313760e81b845261016051519361262a6101605186614057565b6003855288850191620ccccd60ea1b83526001851460018603613a23575b15613933575050505092602786602a946008828196602c82809c61277b9c5f191493845f1461392c578a5b85156139255782985b861561391d5750945b156139155750955b61016051516b1e31b4b931b6329031bc1e9160a11b8f8201528a51909e8f9b829101858d015e8a019067383c111031bc9e9160c11b84830152805192839101603483015e0101907f70782220723d22347078222066696c6c3d22776869746522202f3e3c63697263848301526636329031bc1e9160c91b6028830152805192839101602f83015e01019067383c111031bc9e9160c11b84830152805192839101602f83015e01017f70782220723d2232347078222066696c6c3d226e6f6e6522207374726f6b653d8382015269113bb434ba329110179f60b11b60288201520301600a810184520182614057565b606561016051519889956c078ce40dac2e6d67a44eae4d85609b1b85880152858251868401908082602d8c015e89019361149160f11b602d8601527f207374796c653d227472616e73666f726d3a7472616e736c6174652837327078602f8601527f2c313839707829223e3c7265637420783d222d313670782220793d222d313670604f8601527f78222077696474683d22313830707822206865696768743d2231383070782220606f8601527f66696c6c3d226e6f6e6522202f3e3c7061746820643d22000000000000000000608f860152602d845189860196818860a683015e0101907f22207374726f6b653d227267626128302c302c302c302e332922207374726f6b848301527f652d77696474683d2233327078222066696c6c3d226e6f6e6522207374726f6b6099830152733296b634b732b1b0b81e913937bab7321110179f60611b60b9830152700785ece7c78ce40dac2e6d67a44eae4d85607b1b60cd83015251809260de83015e01019061149160f11b848301527f207374796c653d227472616e73666f726d3a7472616e736c617465283732707860678301526816189c1cb83c14911f60b91b60878301527f3c7265637420783d222d313670782220793d222d31367078222077696474683d60908301527f22313830707822206865696768743d223138307078222066696c6c3d226e6f6e60b083015264329110179f60d91b60d0830152681e3830ba3410321e9160b91b60d583015251809260de83015e0101907f22207374726f6b653d2272676261283235352c3235352c3235352c3129222066848301527f696c6c3d226e6f6e6522207374726f6b652d6c696e656361703d22726f756e646099830152671110179f1e17b39f60c11b60b983015280519283910160c183015e01015f838201520301601f198101845283614057565b612a34610140610180510151614a45565b60018060a01b0360406101805101511660c061018051015160020b9160e061018051015160020b92612a6583615598565b60e052612a7181615a67565b612a7a85615a67565b928051946004860186116138d5576137ae57612a9461440e565b805193600585019283861161379657845191600a830180841161379657885195600a8701928388116137965760049c612acc91615b90565b9c909b600881019182910111613796578060070290600782040361379657612af5600991614a45565b9901809111613796578060070290600782040361379657612b17600e91614a45565b9401809111613796578060070290600782040361379657612b39600e91614a45565b950180911161379657600781810204810361379657600702612b5a90614a45565b9561016051516080526080516020015f80516020615e8483398151915290526c1cb83c1610199a9a383c14911f60991b6101605160805101526c1e3932b1ba103bb4b23a341e9160991b608051604d015280516020819201608051605a015e60805101605a0160a0518152612bce906157f9565b5f80516020615e048339815191528152602081015f80516020615de483398151915290526101605181015f80516020615e648339815191529052606081015f80516020615e248339815191529052608081016c1f24a21d101e17ba39b830b71f60991b905281516020819301608d83015e6a1e17ba32bc3a1f1e17b39f60a91b608d92909101918201525f80516020615e8483398151915260988201526c1cb83c1610199c1a383c14911f60991b60b88201526c1e3932b1ba103bb4b23a341e9160991b60c5820152815191829060200160d283015e01608d0160450160a0518152612cb9906157f9565b5f80516020615e048339815191528152602081015f80516020615de483398151915290526101605181015f80516020615e648339815191529052606081015f80516020615e248339815191529052608081016e1f2437b7b59d101e17ba39b830b71f60891b905281516020819301608f83015e6a1e17ba32bc3a1f1e17b39f60a91b608f92909101918201525f80516020615e84833981519152609a8201526c1cb83c16101a189a383c14911f60991b60ba8201526c1e3932b1ba103bb4b23a341e9160991b60c7820152815191829060200160d483015e01608f0160450160a0518152612da6906157f9565b5f80516020615e048339815191528152602081015f80516020615de483398151915290526101605181015f80516020615e648339815191529052606081015f80516020615e24833981519152905260808101721f26b4b7102a34b1b59d101e17ba39b830b71f60691b905281516020819301609383015e6a1e17ba32bc3a1f1e17b39f60a91b609392909101918201525f80516020615e84833981519152609e8201526c1cb83c16101a1a1a383c14911f60991b60be8201526c1e3932b1ba103bb4b23a341e9160991b60cb820152815191829060200160d883015e0160930160450160a0518152612e97906157f9565b5f80516020615e048339815191528152602081015f80516020615de483398151915290526101605181015f80516020615e648339815191529052606081015f80516020615e24833981519152905260808101721f26b0bc102a34b1b59d101e17ba39b830b71f60691b905281516020819301609383015e7f3c2f746578743e3c2f673e3c67207374796c653d227472616e73666f726d3a74609392909101918201527f72616e736c6174652832323670782c20343333707829223e000000000000000060b38201527f3c726563742077696474683d223336707822206865696768743d22333670782260cb8201527f2072783d22387078222072793d22387078222066696c6c3d226e6f6e6522207360eb8201527f74726f6b653d2272676261283235352c3235352c3235352c302e322922202f3e61010b8201527f3c70617468207374726f6b652d6c696e656361703d22726f756e642220643d2261012b8201527f4d38203943382e30303030342032322e393439342031362e323039392032382061014b8201527f3237203238222066696c6c3d226e6f6e6522207374726f6b653d22776869746561016b820152631110179f60e11b61018b8201527f3c636972636c65207374796c653d227472616e73666f726d3a7472616e736c6161018f820152640e8ca66c8560db1b6101af82015281519182906020016101b483015e016093016101218101630383c16160e51b90528151602081930161012583015e7f70782c2030707829222063783d22307078222063793d223070782220723d2234610125929091019182015275383c11103334b6361e913bb434ba3291179f1e17b39f60511b6101458201526080805161013b928190039283019052516131249161015b0190614057565b61018051610140015191610180516040015160a05150606061016051519060208201928684526bffffffffffffffffffffffff19911b166101605182015260348152613171605482614057565b5190209280156100a9577f07060605060205000602030205040001060502050303040105050304000000006f8421084210842108cc6318c6db6d54be826001600160801b031060071b83811c67ffffffffffffffff1060061b1783811c63ffffffff1060051b1783811c61ffff1060041b1783811c610340511060031b1792831c1c601f161a1760011b6101fe811660fe8216036137965760fe9060a051501660010190610340518211613796576103405182161561377e576137026020610de26002602761362c84610de26006829b83603d9b61375f9f6137519e61034051165f1904115f14613763578161016051517f3c67207374796c653d227472616e73666f726d3a7472616e736c617465283232828201527f3670782c20333932707829223e3c726563742077696474683d22333670782220610160518201527f6865696768743d2233367078222072783d22387078222072793d22387078222060608201527f66696c6c3d226e6f6e6522207374726f6b653d2272676261283235352c32353560808201526c16191a9a96181719149110179f60991b60a08201527f3c673e3c70617468207374796c653d227472616e73666f726d3a7472616e736c60ad8201527f617465283670782c367078292220643d224d313220304c31322e36353232203960cd8201527f2e35363538374c313820312e363037374c31332e373831392031302e3231383160ed82015272026191917199c9919901b26189a171a199a189606d1b61010d8201527f31312e333437384c32342031324c31342e343334312031322e363532324c32326101208201527f2e333932332031384c31332e373831392031332e373831394c31382032322e336101408201527f3932334c31322e363532322031342e343334314c31322032344c31312e33343761016082015270382031342e343334314c362032322e333960781b610240518201527f32334c31302e323138312031332e373831394c312e363037372031384c392e356101918201527f363538372031322e363532324c302031324c392e35363538372031312e3334376101b18201527f384c312e3630373720364c31302e323138312031302e323138314c3620312e366101d18201527f3037374c31312e3334373820392e35363538374c313220305a222066696c6c3d6101f182015269113bb434ba329110179f60b11b6102118201527f3c616e696d6174655472616e73666f726d206174747269627574654e616d653d61021b8201527f227472616e73666f726d2220747970653d22726f74617465222066726f6d3d2261023b8201527f302031382031382220746f3d2233363020313820313822206475723d2231307361025b8201527f2220726570656174436f756e743d22696e646566696e697465222f3e3c2f673e61027b820152631e17b39f60e11b61029b82015261027f815261359c61029f82614057565b915b61016051519788958160c05151808260c05101838b015e88018181019060a051825261010051518092846101005101905e01019060a0518252805192839101825e019060a0518252805192839101825e0160a05181526080515190818460805101825e019060a0518252805192839101825e01651e17b9bb339f60d11b815203601919810184520182614057565b6101605151948591683d913730b6b2911d1160b91b82840152601260296103e0515180856103e051018388015e850171111610113232b9b1b934b83a34b7b7111d1160711b8282015261040051519081866104005101603b83015e01018181019060a05182526103c051518092866103c05101905e0101906c1116101134b6b0b3b2911d101160991b82527f646174613a696d6167652f7376672b786d6c3b6261736536342c000000000000600d8301528051928391018583015e0161227d60f01b838201520301601d19810184520182614057565b61016051519384917f646174613a6170706c69636174696f6e2f6a736f6e3b6261736536342c000000828401528051918291018484015e810160a051838201520301601f198101835282614057565b610160515191829182613f15565b0390f35b8161016051516137738282614057565b60a05181529161359e565b634e487b7160e01b60a051526012600452602460a051fd5b634e487b7160e01b60a051526011600452602460a051fd5b60055f60a0526137be6005614079565b610140526101605151610120526137db6101405161012051614057565b600561012051526101205150601f196137f46005614079565b013660206101205101375f5b8181106138e95750505f60a052600361381881614079565b61382761016051519182614057565b818152601f1961383683614079565b0136602083013760275b602a811061389f57506020918161389a92508361016051519485926101205151808361012051018487015e8401906217171760e91b83830152805192839101602383015e01015f838201520301601f198101835282614057565b612a94565b60ff60f81b6138b08260e0516140f1565b51169060261981018181116138d5576138ce6001935f1a91856140f1565b5301613840565b634e487b7160e01b5f52601160045260245ffd5b60019060ff60f81b6138fd8260e0516140f1565b51165f1a61390e82610120516140f1565b5301613800565b90509561268d565b905094612685565b819861267c565b879a612673565b613a1e97945060089591601b97602c88936027979c61016051519d8e9a6b1e31b4b931b6329031bc1e9160a11b60208d0152518091858d015e8a019067383c111031bc9e9160c11b84830152518092603483015e0101907f70782220723d22347078222066696c6c3d22776869746522202f3e0000000000848301526b1e31b4b931b6329031bc1e9160a11b6023830152518092602f83015e01019067383c111031bc9e9160c11b84830152518092602f83015e01017f70782220723d22347078222066696c6c3d22776869746522202f3e0000000000838201520301600419810184520182614057565b61277b565b505f198514612648565b60088113613a77575060796020604051613a48604082614057565b601981527f4d3120314333332034392039372031313320313435203134350000000000000082820152926125ab565b60108113613ac1575060796020604051613a92604082614057565b601981527f4d3120314333332035372038392031313320313435203134350000000000000082820152926125ab565b60208113613b0b575060796020604051613adc604082614057565b601981527f4d3120314332352036352038312031323120313435203134350000000000000082820152926125ab565b60408113613b55575060796020604051613b26604082614057565b601981527f4d3120314331372037332037332031323920313435203134350000000000000082820152926125ab565b60808113613b9f575060796020604051613b70604082614057565b601881527f4d3120314339203831203635203133372031343520313435000000000000000082820152926125ab565b61010012613be85760796020604051613bb9604082614057565b601a81527f4d31203143312038392035372e3520313435203134352031343500000000000082820152926125ab565b60796020604051613bfa604082614057565b601881527f4d3120314331203937203439203134352031343520313435000000000000000082820152926125ab565b634e487b7160e01b5f52601260045260245ffd5b5f198203613c7157604051613c53604082614057565b600a81526911b330b23296b237bbb760b11b60208201525b9461252d565b604051613c7f604082614057565b6005815264236e6f6e6560d81b6020820152613c6b565b634e487b7160e01b5f52604160045260245ffd5b82613cb6602a92615598565b9561068e565b82613cc8600292615598565b610669565b82613cd9600a92615598565b92610647565b6101006102c051015160020b916103a1565b6101206102c051015160020b61036a565b9050956101d3565b81926101cb565b9093506020813d602011613d41575b81613d2d60209383614057565b81010312613d3d57519285610196565b5f80fd5b3d9150613d20565b6040513d5f823e3d90fd5b8263ed15e6cf60e01b5f5260045260245ffd5b9150508060c03d60c011613e1c575b613d808183614057565b81010360c08112613d3d5760a013613d3d576040519060a0820182811067ffffffffffffffff821117613c9657604052613db9816141cc565b8252613dc7602082016141cc565b6020830152604081015162ffffff81168103613d3d57604083015260608101518060020b8103613d3d5760608301526080810151906001600160a01b0382168203613d3d5760a0916080840152015183610104565b503d613d76565b34613d3d576040366003190112613d3d57613e3c613eff565b6024356001600160a01b0381168103613d3d57613e63613e5d602093613f3f565b91613f3f565b12604051908152f35b34613d3d575f366003190112613d3d576040517f00000000000000000000000000000000000000000000000000000000000000006001600160a01b03168152602090f35b34613d3d575f366003190112613d3d5761375f613ecb614116565b60405191829182613f15565b34613d3d576020366003190112613d3d57602090613efb613ef6613eff565b613f3f565b8152f35b600435906001600160a01b0382168203613d3d57565b602060409281835280519182918282860152018484015e5f828201840152601f01601f1916010190565b6001600160a01b031680158015614017575b6140105760014614613f63575b505f90565b73a0b86991c6218b36c1d19d4a2e9eb0ce3606eb488103613f85575061012c90565b73dac17f958d2ee523a2206206994597c13d831ec78103613fa6575060c890565b736b175474e89094c44da98b954eedeac495271d0f8103613fc75750606490565b738daebade922df735c38c80c7ebd708af50815faa8103613fe9575060c71990565b732260fac5e5542a773aa44fbcfedf7c193bc2c59914614009575f613f5e565b61012b1990565b5060631990565b507f00000000000000000000000000000000000000000000000000000000000000006001600160a01b03168114613f51565b5f1981146138d55760010190565b90601f8019910116810190811067ffffffffffffffff821117613c9657604052565b67ffffffffffffffff8111613c9657601f01601f191660200190565b61409f6006614079565b906140ad6040519283614057565b6006825281601f196140bf6006614079565b0190602036910137565b906140d382614079565b6140e06040519182614057565b82815280926140bf601f1991614079565b908151811015614102570160200190565b634e487b7160e01b5f52603260045260245ffd5b5f5b6020811080614190575b156141355761413090614049565b614118565b61413e816140c9565b907f0000000000000000000000000000000000000000000000000000000000000000905f5b8181106141705750505090565b60208110156141025780836001921a61418982876140f1565b5301614163565b15614102577f0000000000000000000000000000000000000000000000000000000000000000811a60f81b6001600160f81b0319161515614122565b51906001600160a01b0382168203613d3d57565b6001600160a01b038116915f9190831561433357506141fe90614433565b918251156142805750600c825111614214575090565b9061421f600c614079565b9161422d6040519384614057565b600c8352601f1961423e600c614079565b01366020850137805b600c81106142555750505090565b6001906001600160f81b031961426b82866140f1565b5116831a61427982876140f1565b5301614247565b91505061428b614095565b905f5b6003811061429b57505090565b80601303601381116138d5576001600160fd1b03811681036138d557829060031b1c9060f080600f198416161660ff8316039160ff83116138d557600f6142e59160041c16615736565b600182901b926001600160ff1b03831683036138d557614311915f1a61430b85886140f1565b53615736565b91600181018091116138d55761432c6001935f1a91866140f1565b530161428e565b9250505090565b3d15614364573d9061434b82614079565b916143596040519384614057565b82523d5f602084013e565b606090565b6001600160a01b038116156143e4575f8091604051602081019063313ce56760e01b82526004815261439c602482614057565b51915afa6143a861433a565b9015613f5e578051602081146143bf575b50505f90565b8160209181010312613d3d576020015160ff8111156143de57806143b9565b60ff1690565b50601290565b604051906143f9604083614057565b60068252654e617469766560d01b6020830152565b6040519061441d604083614057565b60078252664e6f20486f6f6b60c81b6020830152565b5f809160405160208101906395d89b4160e01b825260048152614457602482614057565b51915afa61446361433a565b90156145c357805160208103614535575060208151918180820193849201010312613d3d57519060405191614499604084614057565b602080845236848201375f905f5b602081106144f65750506144ba816140c9565b905f5b8181106144cb575090925050565b6001906001600160f81b03196144e182886140f1565b51165f1a6144ef82866140f1565b53016144bd565b81811a60f881901b6001600160f81b031916614516575b506001016144a7565b8361452e9161452860019496896140f1565b53614049565b929061450d565b6040811161455357505060405161454d602082614057565b5f815290565b810190602081818401930312613d3d5760208101519067ffffffffffffffff8211613d3d570181603f82011215613d3d5760208101519061459382614079565b926145a16040519485614057565b82845260408284010111613d3d57815f926040602093018386015e8301015290565b5060405161454d602082614057565b60ff1660ff81146138d55760010190565b60405190610100820182811067ffffffffffffffff821117613c96576040525f60e0838281528260208201528260408201528260608201528260808201528260a08201528260c08201520152565b919082039182116138d557565b90601082018092116138d557565b90606482018092116138d557565b919082018092116138d557565b60ff5f199116019060ff82116138d557565b60ff6004199116019060ff82116138d557565b604d81116138d557600a0a90565b8115613c29570490565b62ffffff8116906280000082146149185781156148f6575f9262ffffff5f925b169182156147305760ff8116156146f557600a6146ed6146e762ffffff936145d2565b96614049565b9593046146c4565b9362ffffff600a840616614713575b600a6146ed62ffffff92614049565b93600a6146ed61472662ffffff936145d2565b9692505050614704565b909392915061473d6145e3565b91600584106148765760ff82169160046147578487614631565b1061486d5760ff5f5b169260041986018681116138d55760ff61477984614667565b1681101561485157505f905b6080860191818352614797818361465a565b5f198101939084116138d5576147c88760ff6147c28180958d60a0836147d39c169101525116614667565b1661465a565b16604088015261465a565b92600184018094116138d55760ff61480992816147f66148049461480f9861465a565b1660208801525b1686614631565b61468c565b9061469a565b8152600160e082015260048211156148445760031982019182116138d55760ff8061484193165b166060820152614cfe565b90565b614841915060ff5f614836565b6148679060ff61486085614667565b1690614631565b90614785565b60ff6001614760565b83600503600581116138d5576002608085015260028101908181116138d557600181019182116138d55760ff6148b6921660a086015260ff84169061465a565b600281018091116138d55760ff168060208501526001190160ff81116138d55761480460ff61480f948161480994166040880152600160c08801526147fd565b5050604051614906604082614057565b6002815261302560f01b602082015290565b5050604051614928604082614057565b600781526644796e616d696360c81b602082015290565b905f805b835160ff82169081101561499857614970906001600160f81b03199061496990876140f1565b511661552a565b614983575b61497e906145d2565b614943565b9061499061497e916145d2565b919050614975565b505060ff16806149a55750565b6149b36149b891845161465a565b6140c9565b5f925f5b815160ff821690811015614a3d57614a1d91906149e56001600160f81b031961496983876140f1565b614a22575b6001600160f81b0319906149fe90856140f1565b511695614a17614a0d82614049565b975f1a91866140f1565b536145d2565b6149bc565b605c614a37614a3089614049565b98876140f1565b536149ea565b509193505050565b805f9172184f03e93ff9f4daa797ed6e38ed64bf6a1f0160401b821015614b6a575b806d04ee2d6d415b85acef8100000000600a921015614b4f575b662386f26fc10000811015614b3b575b6305f5e100811015614b2a575b612710811015614b1b575b6064811015614b0d575b1015614b02575b600a6021614aca600185016140c9565b938401015b5f1901916f181899199a1a9b1b9c1cb0b131b232b360811b8282061a8353048015614afd57600a9091614acf565b505090565b600190910190614aba565b606460029104930192614ab3565b61271060049104930192614aa9565b6305f5e10060089104930192614a9e565b662386f26fc1000060109104930192614a91565b6d04ee2d6d415b85acef810000000060209104930192614a81565b506040915072184f03e93ff9f4daa797ed6e38ed64bf6a1f0160401b8104614a67565b818102929181159184041417156138d557565b90815115614cdc5760405191614bb7606084614057565b604083527f4142434445464748494a4b4c4d4e4f505152535455565758595a61626364656660208401527f6768696a6b6c6d6e6f707172737475767778797a303132333435363738392b2f60408401528051600281018091116138d557600390046001600160fe1b03811681036138d557614c349060021b6140c9565b90602082019080815182019560208701908151925f83525b888110614c8e5750506003939495965052510680600114614c7c57600214614c72575090565b603d905f19015390565b50603d90815f19820153600119015390565b600360049199969901986001603f8b5182828260121c16870101518453828282600c1c16870101518385015382828260061c1687010151600285015316840101516003820153019497614c4c565b905060405161454d602082614057565b60ff60019116019060ff82116138d557565b614d0e60ff6020830151166140c9565b9060e0810151614e31575b60c0810151614e0d575b60ff6080820151165b60ff614d3d8160a085015116614cec565b16811015614d5b57806030614d54600193866140f1565b5301614d2c565b50915b825115614e085760ff6060840151168015159081614df7575b50614dcb575b600a835106603001806030116138d557604084018051909160f81b6001600160f81b0319165f1a90614db29060ff16856140f1565b5360ff5f198183511601169052600a8351048352614d5e565b6040830160ff8151169081156138d5575f19820160ff169052602e90614df190846140f1565b53614d7d565b905060ff604085015116145f614d77565b915090565b815115614102576030602083015381516001101561410257602e6021830153614d23565b81515f1981019081116138d557614e4a602591846140f1565b53614d19565b9060020b9060020b02908160020b9182036138d557565b60405190614e76604083614057565b600382526226a4a760e91b6020830152565b60405190614e97604083614057565b600382526209a82b60eb1b6020830152565b909392938060020b8015613c2957614ec78282620d89e71905614e50565b600293840b930b8303614ef157505050509050155f14614ee957614841614e67565b614841614e88565b90614f0091620d89e805614e50565b60020b8103614f2357505015159050614f1b57614841614e88565b614841614e67565b8060ff1d8181011890620d89e882116155185763ffffffff91600160801b7001fffcb933bd6fad37aa2d162d1a5940016001831602189190600281166154fc575b600481166154e0575b600881166154c4575b601081166154a8575b6020811661548c575b60408116615470575b60808116615454575b6101008116615438575b610200811661541c575b6104008116615400575b61080081166153e4575b61100081166153c8575b61200081166153ac575b6140008116615390575b6180008116615374575b620100008116615358575b62020000811661533d575b620400008116615322575b6208000016615309575b5f12615301575b0160201c916152dc575b60ff80911692168083035f8212848212811690858313901516176138d5575f81126152c957925b831515806152be575b156152ac57600192839290911115615280576150849061507785841c61468c565b90838060a01b0316614b8d565b921614615272575b6150968180615963565b600160601b91909111908115615263576150af906159f6565b905b815f815b61524f576150c39150614667565b905f83600560ff851611615223575b50600a600481860611940493615211575b620186a08414615203575b6151f3575b6150fb6145e3565b9181156151775760ff16602b039260ff84116138d55760ff84166007019360ff85116138d55760ff602085019516855260026080850152602b81116138d557600181018091116138d55761515e60ff614841968180941660a08801525116614667565b1660408401525b825260c08201525f60e0820152614cfe565b60ff811690600982106151c15750600319019260ff84116138d55760ff6151af81614841961680602087015260056080870152614667565b1660a084015260046040840152615165565b6148419491506151e86151e360ff926006602088015260056040880152614679565b614cec565b166060840152615165565b906151fd906145d2565b906150f3565b5091600a90049160016150ee565b92600181018091116138d557926150e3565b90935060ff61523184614679565b1690604d82116138d55761524891600a0a9061469a565b925f6150d2565b61525a600a916145d2565b910490816150b5565b61526c906159ac565b906150b1565b61527b906158e7565b61508c565b61529c9061528f85841c61468c565b90838060a01b031661469a565b92160361508c5761527b90615848565b50506001600160a01b0316905061508c565b506012841115615056565b600160ff1b81146138d5575f039261504d565b906001600160a01b03168015613c2957600160c01b046001600160a01b031690615026565b5f190461501c565b6b048a170391f7dc42444e8fa290910260801c90615015565b6d2216e584f5fa1ea926041bedfe9890920260801c9161500b565b916e5d6af8dedb81196699c329225ee6040260801c91615000565b916f09aa508b5b7a84e1c677de54f3e99bc90260801c91614ff5565b916f31be135f97d08fd981231505542fcfa60260801c91614fea565b916f70d869a156d2a1b890bb3df62baf32f70260801c91614fe0565b916fa9f746462d870fdf8a65dc1f90e061e50260801c91614fd6565b916fd097f3bdfd2022b8845ad8f792aa58250260801c91614fcc565b916fe7159475a2c29b7443b29c7fa6e889d90260801c91614fc2565b916ff3392b0822b70005940c7a398e4b70f30260801c91614fb8565b916ff987a7253ac413176f2b074cf7815e540260801c91614fae565b916ffcbe86c7900a88aedcffc83b479aa3a40260801c91614fa4565b916ffe5dee046a99a2a811c461f1969c30530260801c91614f9a565b916fff2ea16466c96a3843ec78b326b528610260801c91614f91565b916fff973b41fa98c081472e6896dfb254c00260801c91614f88565b916fffcb9843d60f6159c9db58835c9266440260801c91614f7f565b916fffe5caca7e10e4e61c3624eaa0941cd00260801c91614f76565b916ffff2e50f5f656932ef12357cf3c7fdcc0260801c91614f6d565b916ffff97272373d413259a46990580e213a0260801c91614f64565b6345c3193d60e11b5f5260045260245ffd5b60ff60f81b16601160f91b811490811561557e575b8115615570575b8115615562575b8115615557575090565b600960f81b14919050565b600d60f81b8114915061554d565b600560f91b81149150615546565b600360fa1b8114915061553f565b80156138d5575f190190565b806155a3602a614079565b916155b16040519384614057565b602a83526155bf602a614079565b6020840190601f19013682378351156141025760309053825160011015614102576078602184015360295b6001811161561257506155fb575090565b63e22e27eb60e01b5f52600452601460245260445ffd5b90600f81169060108210156141025761564f916f181899199a1a9b1b9c1cb0b131b232b360811b901a61564584876140f1565b5360041c9161558c565b6155ea565b600292830b920b8212156156695750505f1990565b60020b121561567757600190565b5f90565b60881c615686614095565b90815190815b61569557505090565b600f8116906010821015614102575f1983018381116138d5576156d3926f181899199a1a9b1b9c1cb0b131b232b360811b901a9061564590866140f1565b908161568c565b6156e2614095565b90815190815b6156f157505090565b600f8116906010821015614102575f1983018381116138d55761572f926f181899199a1a9b1b9c1cb0b131b232b360811b901a9061564590866140f1565b90816156e8565b60ff16600a81101561575d5760300160ff81116138d55760f81b6001600160f81b03191690565b60370160ff81116138d55760f81b6001600160f81b03191690565b7f3c7376672077696474683d2732393027206865696768743d273530302720766981527f6577426f783d2730203020323930203530302720786d6c6e733d27687474703a60208201527f2f2f7777772e77332e6f72672f323030302f737667273e3c636972636c652063604082015262783d2760e81b606082015260630190565b7f707822206865696768743d2232367078222072783d22387078222072793d223881527f7078222066696c6c3d227267626128302c302c302c302e362922202f3e0000006020820152603d0190565b608081901b5f19600160801b83098180821091039080820391827003298b075b4b6a5240945790619b37fd4a1115613d3d57146158ce577f1f514b8ee5362595de309a65c03ce543f7e851e1625ea646b8fe88b81023b92d927003298b075b4b6a5240945790619b37fd4a90600160801b900990828211900360ff1b910360011c170290565b507003298b075b4b6a5240945790619b37fd4a91500490565b7003298b075b4b6a5240945790619b37fd4a8102905f197003298b075b4b6a5240945790619b37fd4a820990828083109203918083039283600160801b1115613d3d571461595b57600160801b907003298b075b4b6a5240945790619b37fd4a900990828211900360801b910360801c1790565b505060801c90565b81810291905f1982820991838084109303928084039384600160401b1115613d3d57146159a357600160401b910990828211900360c01b910360401c1790565b50505060401c90565b620186a08102905f19620186a0820990828083109203918083039283600160801b1115613d3d571461595b57600160801b90620186a0900990828211900360801b910360801c1790565b6c47bf19673df52e37f2410011d1602c1b8102905f196c47bf19673df52e37f2410011d1602c1b820990828083109203918083039283600160801b1115613d3d571461595b57600160801b906c47bf19673df52e37f2410011d1602c1b900990828211900360801b910360801c1790565b602090604051615a778382614057565b5f8152828260020b5f8112615ace575b5080615a9a62ffffff6148419516614a45565b6040519584879551918291018487015e8401908282015f8152815193849201905e01015f815203601f198101835282614057565b925050505f038060020b9081036138d557614841908280615a9a62ffffff604051615afa604082614057565b60018152602d60f81b848201529495505050615a87565b60405190615b20604083614057565b6002825261323760f01b6020830152565b60405190615b40604083614057565b6002825261323160f01b6020830152565b60405190615b60604083614057565b6002825261062760f31b6020830152565b60405190615b80604083614057565b60018252600760fb1b6020830152565b9060020b9060020b01627fffff198112627fffff8213176138d557600290810b0560020b6201e8471981125f14615bea5750615bca615b71565b90604051615bd9604082614057565b60018152603760f81b602082015290565b620124f719811215615c225750615bff615b71565b90604051615c0e604082614057565b600481526331302e3560e01b602082015290565b6161a719811215615c5a5750615c36615b71565b90604051615c45604082614057565b600581526431342e323560d81b602082015290565b61138719811215615c8c5750604051615c74604082614057565b6002815261031360f41b602082015290614841615b51565b5f811215615cbb5750604051615ca3604082614057565b6002815261313160f01b602082015290614841615b31565b611388811215615d045750604051615cd4604082614057565b6002815261313360f01b602082015290604051615cf2604082614057565b6002815261323360f01b602082015290565b6161a8811215615d4d5750604051615d1d604082614057565b6002815261313560f01b602082015290604051615d3b604082614057565b6002815261323560f01b602082015290565b620124f8811215615d825750615d61615b51565b90604051615d70604082614057565b6002815261191b60f11b602082015290565b6201e8481315615d9d57615d94615b31565b90614841615b11565b604051615dab604082614057565b60028152610c8d60f21b602082015290614841615b1156fe203c616e696d6174652061646469746976653d2273756d222061747472696275696c793d2227436f7572696572204e6577272c206d6f6e6f73706163652220663c7465787420783d22313270782220793d22313770782220666f6e742d66616d70616e2066696c6c3d2272676261283235352c3235352c3235352c302e36292274654e616d653d2273746172744f6666736574222066726f6d3d2230252220746f6e742d73697a653d2231317078222066696c6c3d227768697465223e3c7473203c67207374796c653d227472616e73666f726d3a7472616e736c6174652832a26469706673582212207d5cc6e5952b323ce62ba86159a3c9bf11eccd31f3eb9f3f416eff0bd8b1173664736f6c634300081a0033","linkReferences":{}},"methodIdentifiers":{"currencyRatioPriority(address)":"166c5978","flipRatio(address,address)":"dee91a2c","nativeCurrencyLabel()":"b7af3cdc","poolManager()":"dc4c90d3","tokenURI(address,uint256)":"e9dc6375","wrappedNative()":"eb6d3a11"},"id":31}