{"abi":[{"type":"constructor","inputs":[{"name":"_poolManager","type":"address","internalType":"contract IPoolManager"}],"stateMutability":"nonpayable"},{"type":"function","name":"executeSwap","inputs":[{"name":"actions","type":"bytes","internalType":"bytes"}],"outputs":[],"stateMutability":"nonpayable"},{"type":"function","name":"msgSender","inputs":[],"outputs":[{"name":"","type":"address","internalType":"address"}],"stateMutability":"view"},{"type":"function","name":"poolManager","inputs":[],"outputs":[{"name":"","type":"address","internalType":"contract IPoolManager"}],"stateMutability":"view"},{"type":"function","name":"unlockCallback","inputs":[{"name":"data","type":"bytes","internalType":"bytes"}],"outputs":[{"name":"","type":"bytes","internalType":"bytes"}],"stateMutability":"nonpayable"},{"type":"error","name":"DeltaNotNegative","inputs":[{"name":"currency","type":"address","internalType":"Currency"}]},{"type":"error","name":"DeltaNotPositive","inputs":[{"name":"currency","type":"address","internalType":"Currency"}]},{"type":"error","name":"InputLengthMismatch","inputs":[]},{"type":"error","name":"InsufficientBalance","inputs":[]},{"type":"error","name":"InvalidBips","inputs":[]},{"type":"error","name":"NotPoolManager","inputs":[]},{"type":"error","name":"UnsupportedAction","inputs":[{"name":"action","type":"uint256","internalType":"uint256"}]},{"type":"error","name":"V4TooLittleReceived","inputs":[{"name":"minAmountOutReceived","type":"uint256","internalType":"uint256"},{"name":"amountReceived","type":"uint256","internalType":"uint256"}]},{"type":"error","name":"V4TooMuchRequested","inputs":[{"name":"maxAmountInRequested","type":"uint256","internalType":"uint256"},{"name":"amountRequested","type":"uint256","internalType":"uint256"}]}],"bytecode":{"object":"0x60a03460a357601f6113fd38819003918201601f19168301916001600160401b0383118484101760a75780849260209460405283398101031260a357516001600160a01b038116810360a35760805260405161134190816100bc8239608051818181605a0152818160e1015281816101a401528181610a3c01528181610a9501528181610b6d01528181610cad01528181610f260152818161101b01526111920152f35b5f80fd5b634e487b7160e01b5f52604160045260245ffdfe60806040526004361015610011575f80fd5b5f3560e01c806391dd734614610194578063985f61a1146100a7578063d737d0c71461008d5763dc4c90d314610045575f80fd5b34610089575f366003190112610089576040517f00000000000000000000000000000000000000000000000000000000000000006001600160a01b03168152602090f35b5f80fd5b34610089575f366003190112610089576020604051338152f35b34610089576100dc5f6100b936610329565b6040516348c8949160e01b815260206004820152938492839260248401916103e8565b0381837f00000000000000000000000000000000000000000000000000000000000000006001600160a01b03165af180156101895761011757005b3d805f833e61012681836103aa565b8101906020818303126100895780519067ffffffffffffffff8211610089570181601f8201121561008957805161015c816103cc565b9261016a60405194856103aa565b81845260208284010111610089575f928160208094018483015e010152005b6040513d5f823e3d90fd5b34610089576101a236610329565b7f00000000000000000000000000000000000000000000000000000000000000006001600160a01b0316330361031a57604082351863ffffffff6040840135169163ffffffe0601f8401169160608301602086013518179184019060608201359263ffffffff841691641fffffffe0608085019560051b1687815f925b8084106102ed57506080919250860101910110176102e0578084036102d1575f5b84811015610292578181101561027e5780610278610268608060019460051b87010187610408565b906060848b01013560f81c61043b565b01610240565b634e487b7160e01b5f52603260045260245ffd5b6020604080516102a283826103aa565b5f8152815192839181835280519182918282860152018484015e5f828201840152601f01601f19168101030190f35b63aaad13f760e01b5f5260045ffd5b633b99b53d5f526004601cfd5b91506020809163ffffffe0601f608080888d01013599848b1817998c01013501160101920191899161021f565b63570c108560e11b5f5260045ffd5b9060206003198301126100895760043567ffffffffffffffff811161008957826023820112156100895780600401359267ffffffffffffffff84116100895760248483010111610089576024019190565b60a0810190811067ffffffffffffffff82111761039657604052565b634e487b7160e01b5f52604160045260245ffd5b90601f8019910116810190811067ffffffffffffffff82111761039657604052565b67ffffffffffffffff811161039657601f01601f191660200190565b908060209392818452848401375f828201840152601f01601f1916010190565b903590601e1981360301821215610089570180359067ffffffffffffffff82116100895760200191813603831361008957565b929190600b84101561087b57600784036105705761045a929350610dda565b60208101906104698282610de8565b90505f9261047683610d33565b9061048360408501610d12565b906001600160801b03821615610557575b92915f915b8383106104ef5750505050506060016001600160801b03806104ba83610d12565b1692169182106104c8575050565b6104d96001600160801b0391610d12565b638b063d7360e01b5f521660045260245260445ffd5b8496506001600160801b0361053b9161052261051b866105156105409798999a8c610de8565b90610e1e565b958661122d565b61052f6080880188610408565b949093165f03916110bc565b6112f5565b94600161054d8793610d33565b9194930191610499565b905061056a61056583610a35565b611099565b90610494565b6006840361064c57610583929350610d03565b61058f60c08201610d12565b6001600160801b038116156105fb575b6105e761053b60e0926105c66001600160801b036105bf60a08801610d26565b9216610c96565b906105d5610100870187610408565b9290916105e23689610d5b565b6110bc565b91016001600160801b03806104ba83610d12565b5061060860a08201610d26565b156106325760e06105e761053b61062961056561062486610d33565b610a35565b9250505061059f565b60e06105e761053b61062961056561062460208701610d33565b600984036107745761065f929350610dda565b602081019061066e8282610de8565b5f93915061067e60408401610d12565b61068784610d33565b916001600160801b03821615610760575b92919290815b6106f057505050506060016001600160801b03806106bb83610d12565b1692169182116106c9575050565b6106da6001600160801b0391610d12565b6312bacdd360e01b5f521660045260245260445ffd5b829395506001600160801b0361073f9161072561071e61071461074996978a610de8565b5f19890191610e1e565b988961122d565b9061073360808b018b610408565b949093169115906110bc565b600f0b5f03611099565b936107548591610d33565b92915f1901908161069e565b905061076e61056583610ca6565b90610698565b60088414610792575050505b635cda29d760e01b5f5260045260245ffd5b61079d929350610d03565b6107a960c08201610d12565b6001600160801b03811615610812575b6107fe6105656107f66001600160801b0360e0946107d960a08801610d26565b6107e7610100890189610408565b93909216906105e2368a610d5b565b600f0b610c96565b91016001600160801b03806106bb83610d12565b5061081f60a08201610d26565b156108595760e06107fe6105656107f66001600160801b0361084e61056561084960208901610d33565b610ca6565b9450505050506107b9565b60e06107fe6105656107f66001600160801b0361084e61056561084988610d33565b92600c81036108c7575061088f9192610c83565b9061089981610ca6565b918083116108b05750906108ae913390610b63565b565b90506312bacdd360e01b5f5260045260245260445ffd5b600f810361091057506108da9192610c83565b906108e481610a35565b918083106108f95750906108ae913390610a8c565b9050638b063d7360e01b5f5260045260245260445ffd5b600b81036109485750610927906108ae92936109f6565b1561093d57610937823392610b2f565b91610b63565b610937823092610b2f565b600e810361097b575061096f610965610975926108ae94956109f6565b9282949291610a0e565b92610b1b565b91610a8c565b926010841461098c57505050610780565b6109a39293509061099c916109f6565b9290610a0e565b6109ac82610a35565b61271084116109e7578381029381850414901517156109d3576127106108ae930491610a8c565b634e487b7160e01b5f52601160045260245ffd5b636f5500f360e11b5f5260045ffd5b906060116102e0578035916040602083013592013590565b6001600160a01b03811660018103610a265750503390565b600203610a3257503090565b90565b610a6081307f0000000000000000000000000000000000000000000000000000000000000000610e40565b905f8212610a6c575090565b634c085bf160e01b5f9081526001600160a01b0391909116600452602490fd5b908215610b16577f00000000000000000000000000000000000000000000000000000000000000006001600160a01b0316803b1561008957604051630b0d9c0960e01b81526001600160a01b03938416600482015291909216602482015260448101929092525f908290606490829084905af1801561018957610b0c5750565b5f6108ae916103aa565b505050565b9081610b2b57610a329150610a35565b5090565b90600160ff1b8203610b4557610a329150610ebc565b81610b2b57610a329150610ca6565b90816020910312610089575190565b5f918315610c7d577f00000000000000000000000000000000000000000000000000000000000000006001600160a01b031691823b1561008957604051632961046560e21b81526001600160a01b03821660048201819052905f8160248183895af1801561018957610c68575b50610c35575050602090600460405180958193630476982d60e21b83525af1908115610c295750610bfe5750565b610c1f9060203d602011610c22575b610c1781836103aa565b810190610b54565b50565b503d610c0d565b604051903d90823e3d90fd5b839460209392610c4492610efe565b600460405180958193630476982d60e21b83525af1908115610c295750610bfe5750565b610c759195505f906103aa565b5f935f610bd0565b50505050565b91906040116102e0576020823592013590565b600160ff1b81146109d3575f0390565b610cd181307f0000000000000000000000000000000000000000000000000000000000000000610e40565b905f8213610ce35750610a3290610c96565b63019a8d9360e51b5f9081526001600160a01b0391909116600452602490fd5b90610140116102e05780350190565b356001600160801b03811681036100895790565b3580151581036100895790565b356001600160a01b03811681036100895790565b35906001600160a01b038216820361008957565b91908260a091031261008957604051610d738161037a565b8092610d7e81610d47565b8252610d8c60208201610d47565b6020830152604081013562ffffff811681036100895760408301526060810135908160020b820361008957606083019190915260800135906001600160a01b03821682036100895760800152565b9060a0116102e05780350190565b903590601e1981360301821215610089570180359067ffffffffffffffff821161008957602001918160051b3603831361008957565b919081101561027e5760051b81013590609e1981360301821215610089570190565b6001600160a01b039182165f9081529282166020908152604093849020935163789add5560e11b815260048101949094529183916024918391165afa908115610189575f91610e8d575090565b90506020813d602011610eb4575b81610ea8602093836103aa565b81010312610089575190565b3d9150610e9b565b6001600160a01b031680610ecf57504790565b6020602491604051928380926370a0823160e01b82523060048301525afa908115610189575f91610e8d575090565b8215610b16576001600160a01b03169081610ffc575050803410610fbf575f908190819081907f00000000000000000000000000000000000000000000000000000000000000006001600160a01b03165af13d15610fba573d610f60816103cc565b90610f6e60405192836103aa565b81525f60203d92013e5b15610f7f57565b60405162461bcd60e51b8152602060048201526013602482015272115512081d1c985b9cd9995c8819985a5b1959606a1b6044820152606490fd5b610f78565b60405162461bcd60e51b8152602060048201526015602482015274125b9cdd59999a58da595b9d08115512081cd95b9d605a1b6044820152606490fd5b6040516323b872dd60e01b81526001600160a01b0391821660048201527f000000000000000000000000000000000000000000000000000000000000000090911660248201526044810192909252602090829060649082905f905af18015610189576110655750565b6020813d602011611091575b8161107e602093836103aa565b8101031261008957518015150361008957565b3d9150611071565b906001600160801b0382168092036110ad57565b6393dafdf160e01b5f5260045ffd5b93928115611212576401000276a4945b60405191606083019083821067ffffffffffffffff83111761039657604091825293151580845260208481018781526001600160a01b03998a168685019081528451633cf3645360e21b815286518c166004820152868401518c1660248201529486015162ffffff166044860152606086015160020b60648601526080909501518a1660848501529451151560a4840152935160c4830152915190961660e48701526101206101048701529390918591829161118d916101248401916103e8565b03815f7f00000000000000000000000000000000000000000000000000000000000000006001600160a01b03165af1928315610189575f936111de575b505f13036111d857600f0b90565b60801d90565b9092506020813d60201161120a575b816111fa602093836103aa565b810103126100895751915f6111ca565b3d91506111ed565b73fffd8963efd1fc6a506488495d951d5263988d25946110cc565b905f608060405161123d8161037a565b828152826020820152826040820152826060820152015261125d82610d33565b6001600160a01b0382811692908216808410156112eb57505b6001600160a01b031691821492602081013562ffffff811690819003610089576040820135918260020b80930361008957606001359260018060a01b03841680940361008957604051946112c98661037a565b85526001600160a01b0316602085015260408401526060830152608082015291565b9150508190611276565b5f81600f0b126110ad576001600160801b03169056fea2646970667358221220fab342a78d18102eb330bf1e01d762848e0b4d07acc56362e05e15bc8873808d64736f6c634300081a0033","linkReferences":{}},"methodIdentifiers":{"executeSwap(bytes)":"985f61a1","msgSender()":"d737d0c7","poolManager()":"dc4c90d3","unlockCallback(bytes)":"91dd7346"},"id":169}