{"abi":[{"type":"constructor","inputs":[{"name":"_posm","type":"address","internalType":"address"},{"name":"_factory","type":"address","internalType":"address"}],"stateMutability":"nonpayable"},{"type":"function","name":"createPool","inputs":[{"name":"token0","type":"address","internalType":"address"},{"name":"token1","type":"address","internalType":"address"},{"name":"plFee","type":"uint24","internalType":"uint24"},{"name":"initialTick","type":"int24","internalType":"int24"}],"outputs":[{"name":"poolAddress","type":"address","internalType":"address"}],"stateMutability":"nonpayable"},{"type":"function","name":"factory","inputs":[],"outputs":[{"name":"","type":"address","internalType":"contract IUniswapV3Factory"}],"stateMutability":"view"},{"type":"function","name":"mintLiquidity","inputs":[{"name":"token0","type":"address","internalType":"address"},{"name":"token1","type":"address","internalType":"address"},{"name":"plFee","type":"uint24","internalType":"uint24"},{"name":"amount0","type":"uint256","internalType":"uint256"},{"name":"amount0Min","type":"uint256","internalType":"uint256"},{"name":"amount1Min","type":"uint256","internalType":"uint256"},{"name":"amount1","type":"uint256","internalType":"uint256"},{"name":"tickLower","type":"int24","internalType":"int24"},{"name":"tickUpper","type":"int24","internalType":"int24"}],"outputs":[{"name":"","type":"uint256","internalType":"uint256"}],"stateMutability":"nonpayable"},{"type":"function","name":"posm","inputs":[],"outputs":[{"name":"","type":"address","internalType":"contract INonfungiblePositionManager"}],"stateMutability":"view"},{"type":"event","name":"LiquidityMinted","inputs":[{"name":"provider","type":"address","indexed":true,"internalType":"address"},{"name":"tokenId","type":"uint256","indexed":true,"internalType":"uint256"},{"name":"liquidity","type":"uint128","indexed":false,"internalType":"uint128"}],"anonymous":false},{"type":"event","name":"PoolCreated","inputs":[{"name":"token0","type":"address","indexed":true,"internalType":"address"},{"name":"token1","type":"address","indexed":true,"internalType":"address"},{"name":"fee","type":"uint24","indexed":false,"internalType":"uint24"},{"name":"pool","type":"address","indexed":false,"internalType":"address"},{"name":"initialPrice","type":"uint160","indexed":false,"internalType":"uint160"}],"anonymous":false},{"type":"event","name":"PositionWithdrawn","inputs":[{"name":"tokenId","type":"uint256","indexed":true,"internalType":"uint256"},{"name":"owner","type":"address","indexed":true,"internalType":"address"}],"anonymous":false}],"bytecode":{"object":"0x60c06040523480156200001157600080fd5b5060405162001f6a38038062001f6a8339818101604052810190620000379190620000c4565b8173ffffffffffffffffffffffffffffffffffffffff1660808173ffffffffffffffffffffffffffffffffffffffff1660601b815250508073ffffffffffffffffffffffffffffffffffffffff1660a08173ffffffffffffffffffffffffffffffffffffffff1660601b81525050505062000153565b600081519050620000be8162000139565b92915050565b60008060408385031215620000d857600080fd5b6000620000e885828601620000ad565b9250506020620000fb85828601620000ad565b9150509250929050565b6000620001128262000119565b9050919050565b600073ffffffffffffffffffffffffffffffffffffffff82169050919050565b620001448162000105565b81146200015057600080fd5b50565b60805160601c60a05160601c611dcb6200019f600039806101135280610264528061038252508060ef52806107a3528061085152806109865280610a455280610a8d5250611dcb6000f3fe608060405234801561001057600080fd5b506004361061004c5760003560e01c80636f70a7fa14610051578063c45a01551461006f578063f425a3ce1461008d578063f4b35fb4146100bd575b600080fd5b6100596100ed565b6040516100669190611a42565b60405180910390f35b610077610111565b6040516100849190611a5d565b60405180910390f35b6100a760048036038101906100a29190611486565b610135565b6040516100b49190611990565b60405180910390f35b6100d760048036038101906100d291906114e9565b61058e565b6040516100e49190611be1565b60405180910390f35b7f000000000000000000000000000000000000000000000000000000000000000081565b7f000000000000000000000000000000000000000000000000000000000000000081565b60008373ffffffffffffffffffffffffffffffffffffffff168573ffffffffffffffffffffffffffffffffffffffff1614156101a6576040517f08c379a000000000000000000000000000000000000000000000000000000000815260040161019d90611a98565b60405180910390fd5b600073ffffffffffffffffffffffffffffffffffffffff168573ffffffffffffffffffffffffffffffffffffffff16141580156102105750600073ffffffffffffffffffffffffffffffffffffffff168473ffffffffffffffffffffffffffffffffffffffff1614155b61024f576040517f08c379a000000000000000000000000000000000000000000000000000000000815260040161024690611b18565b60405180910390fd5b60008061025c8787610b2d565b9150915060007f000000000000000000000000000000000000000000000000000000000000000073ffffffffffffffffffffffffffffffffffffffff16631698ee828484896040518463ffffffff1660e01b81526004016102bf939291906119e2565b60206040518083038186803b1580156102d757600080fd5b505afa1580156102eb573d6000803e3d6000fd5b505050506040513d601f19601f8201168201806040525081019061030f919061145d565b9050600073ffffffffffffffffffffffffffffffffffffffff168173ffffffffffffffffffffffffffffffffffffffff1614610380576040517f08c379a000000000000000000000000000000000000000000000000000000000815260040161037790611ad8565b60405180910390fd5b7f000000000000000000000000000000000000000000000000000000000000000073ffffffffffffffffffffffffffffffffffffffff1663a16712958484896040518463ffffffff1660e01b81526004016103dd939291906119e2565b602060405180830381600087803b1580156103f757600080fd5b505af115801561040b573d6000803e3d6000fd5b505050506040513d601f19601f8201168201806040525081019061042f919061145d565b9350600073ffffffffffffffffffffffffffffffffffffffff168473ffffffffffffffffffffffffffffffffffffffff1614156104a1576040517f08c379a000000000000000000000000000000000000000000000000000000000815260040161049890611ab8565b60405180910390fd5b60006104ac86610b78565b90508473ffffffffffffffffffffffffffffffffffffffff1663f637731d826040518263ffffffff1660e01b81526004016104e79190611b8f565b600060405180830381600087803b15801561050157600080fd5b505af1158015610515573d6000803e3d6000fd5b505050508273ffffffffffffffffffffffffffffffffffffffff168473ffffffffffffffffffffffffffffffffffffffff167f4177db63b23182ae9dc39894e3127a68f97cba794107b7a676588acf25f3897289888560405161057a93929190611baa565b60405180910390a350505050949350505050565b60008160020b8360020b126105d8576040517f08c379a00000000000000000000000000000000000000000000000000000000081526004016105cf90611b38565b60405180910390fd5b6000806105e58c8c610b2d565b915091508173ffffffffffffffffffffffffffffffffffffffff166323b872dd33308c6040518463ffffffff1660e01b8152600401610626939291906119ab565b602060405180830381600087803b15801561064057600080fd5b505af1158015610654573d6000803e3d6000fd5b505050506040513d601f19601f8201168201806040525081019061067891906115af565b6106b7576040517f08c379a00000000000000000000000000000000000000000000000000000000081526004016106ae90611a78565b60405180910390fd5b8073ffffffffffffffffffffffffffffffffffffffff166323b872dd3330896040518463ffffffff1660e01b81526004016106f4939291906119ab565b602060405180830381600087803b15801561070e57600080fd5b505af1158015610722573d6000803e3d6000fd5b505050506040513d601f19601f8201168201806040525081019061074691906115af565b610785576040517f08c379a000000000000000000000000000000000000000000000000000000000815260040161077c90611af8565b60405180910390fd5b8173ffffffffffffffffffffffffffffffffffffffff1663095ea7b37f00000000000000000000000000000000000000000000000000000000000000008b6040518363ffffffff1660e01b81526004016107e0929190611a19565b602060405180830381600087803b1580156107fa57600080fd5b505af115801561080e573d6000803e3d6000fd5b505050506040513d601f19601f8201168201806040525081019061083291906115af565b508073ffffffffffffffffffffffffffffffffffffffff1663095ea7b37f0000000000000000000000000000000000000000000000000000000000000000886040518363ffffffff1660e01b815260040161088e929190611a19565b602060405180830381600087803b1580156108a857600080fd5b505af11580156108bc573d6000803e3d6000fd5b505050506040513d601f19601f820116820180604052508101906108e091906115af565b5060006040518061016001604052808473ffffffffffffffffffffffffffffffffffffffff1681526020018373ffffffffffffffffffffffffffffffffffffffff1681526020018c62ffffff1681526020018760020b81526020018660020b81526020018b81526020018881526020018a81526020018981526020013373ffffffffffffffffffffffffffffffffffffffff1681526020014281525090506000806000807f000000000000000000000000000000000000000000000000000000000000000073ffffffffffffffffffffffffffffffffffffffff166388316456866040518263ffffffff1660e01b81526004016109dd9190611b58565b608060405180830381600087803b1580156109f757600080fd5b505af1158015610a0b573d6000803e3d6000fd5b505050506040513d601f19601f82011682018060405250810190610a2f91906115d8565b93509350935093508d821015610a7f57610a6b877f00000000000000000000000000000000000000000000000000000000000000006000610fb3565b6000828f039050610a7d8833836111b4565b505b8a811015610ac757610ab3867f00000000000000000000000000000000000000000000000000000000000000006000610fb3565b6000818c039050610ac58733836111b4565b505b833373ffffffffffffffffffffffffffffffffffffffff167f0718e1893285ee41b1e9d11cd8dfe0c075ab01b89283b11256c433f03340881f85604051610b0e9190611b74565b60405180910390a3839750505050505050509998505050505050505050565b6000808273ffffffffffffffffffffffffffffffffffffffff168473ffffffffffffffffffffffffffffffffffffffff1610610b6a578284610b6d565b83835b915091509250929050565b60008060008360020b12610b8f578260020b610b97565b8260020b6000035b90507ffffffffffffffffffffffffffffffffffffffffffffffffffffffffffff2761860000360020b811115610c35576040517f08c379a00000000000000000000000000000000000000000000000000000000081526004018080602001828103825260018152602001807f540000000000000000000000000000000000000000000000000000000000000081525060200191505060405180910390fd5b600080600183161415610c5957700100000000000000000000000000000000610c6b565b6ffffcb933bd6fad37aa2d162d1a5940015b70ffffffffffffffffffffffffffffffffff16905060006002831614610ca55760806ffff97272373d413259a46990580e213a8202901c90505b60006004831614610cca5760806ffff2e50f5f656932ef12357cf3c7fdcc8202901c90505b60006008831614610cef5760806fffe5caca7e10e4e61c3624eaa0941cd08202901c90505b60006010831614610d145760806fffcb9843d60f6159c9db58835c9266448202901c90505b60006020831614610d395760806fff973b41fa98c081472e6896dfb254c08202901c90505b60006040831614610d5e5760806fff2ea16466c96a3843ec78b326b528618202901c90505b60006080831614610d835760806ffe5dee046a99a2a811c461f1969c30538202901c90505b6000610100831614610da95760806ffcbe86c7900a88aedcffc83b479aa3a48202901c90505b6000610200831614610dcf5760806ff987a7253ac413176f2b074cf7815e548202901c90505b6000610400831614610df55760806ff3392b0822b70005940c7a398e4b70f38202901c90505b6000610800831614610e1b5760806fe7159475a2c29b7443b29c7fa6e889d98202901c90505b6000611000831614610e415760806fd097f3bdfd2022b8845ad8f792aa58258202901c90505b6000612000831614610e675760806fa9f746462d870fdf8a65dc1f90e061e58202901c90505b6000614000831614610e8d5760806f70d869a156d2a1b890bb3df62baf32f78202901c90505b6000618000831614610eb35760806f31be135f97d08fd981231505542fcfa68202901c90505b600062010000831614610eda5760806f09aa508b5b7a84e1c677de54f3e99bc98202901c90505b600062020000831614610f005760806e5d6af8dedb81196699c329225ee6048202901c90505b600062040000831614610f255760806d2216e584f5fa1ea926041bedfe988202901c90505b600062080000831614610f485760806b048a170391f7dc42444e8fa28202901c90505b60008460020b1315610f8157807fffffffffffffffffffffffffffffffffffffffffffffffffffffffffffffffff81610f7d57fe5b0490505b60006401000000008281610f9157fe5b0614610f9e576001610fa1565b60005b60ff16602082901c0192505050919050565b6000808473ffffffffffffffffffffffffffffffffffffffff1663095ea7b360e01b8585604051602401808373ffffffffffffffffffffffffffffffffffffffff16815260200182815260200192505050604051602081830303815290604052907bffffffffffffffffffffffffffffffffffffffffffffffffffffffff19166020820180517bffffffffffffffffffffffffffffffffffffffffffffffffffffffff83818316178352505050506040518082805190602001908083835b602083106110945780518252602082019150602081019050602083039250611071565b6001836020036101000a0380198251168184511680821785525050505050509050019150506000604051808303816000865af19150503d80600081146110f6576040519150601f19603f3d011682016040523d82523d6000602084013e6110fb565b606091505b509150915081801561113b575060008151148061113a575080806020019051602081101561112857600080fd5b81019080805190602001909291905050505b5b6111ad576040517f08c379a00000000000000000000000000000000000000000000000000000000081526004018080602001828103825260028152602001807f534100000000000000000000000000000000000000000000000000000000000081525060200191505060405180910390fd5b5050505050565b6000808473ffffffffffffffffffffffffffffffffffffffff1663a9059cbb60e01b8585604051602401808373ffffffffffffffffffffffffffffffffffffffff16815260200182815260200192505050604051602081830303815290604052907bffffffffffffffffffffffffffffffffffffffffffffffffffffffff19166020820180517bffffffffffffffffffffffffffffffffffffffffffffffffffffffff83818316178352505050506040518082805190602001908083835b602083106112955780518252602082019150602081019050602083039250611272565b6001836020036101000a0380198251168184511680821785525050505050509050019150506000604051808303816000865af19150503d80600081146112f7576040519150601f19603f3d011682016040523d82523d6000602084013e6112fc565b606091505b509150915081801561133c575060008151148061133b575080806020019051602081101561132957600080fd5b81019080805190602001909291905050505b5b6113ae576040517f08c379a00000000000000000000000000000000000000000000000000000000081526004018080602001828103825260028152602001807f535400000000000000000000000000000000000000000000000000000000000081525060200191505060405180910390fd5b5050505050565b6000813590506113c481611d0b565b92915050565b6000815190506113d981611d0b565b92915050565b6000815190506113ee81611d22565b92915050565b60008135905061140381611d39565b92915050565b60008151905061141881611d50565b92915050565b60008135905061142d81611d67565b92915050565b60008135905061144281611d7e565b92915050565b60008151905061145781611d7e565b92915050565b60006020828403121561146f57600080fd5b600061147d848285016113ca565b91505092915050565b6000806000806080858703121561149c57600080fd5b60006114aa878288016113b5565b94505060206114bb878288016113b5565b93505060406114cc8782880161141e565b92505060606114dd878288016113f4565b91505092959194509250565b60008060008060008060008060006101208a8c03121561150857600080fd5b60006115168c828d016113b5565b99505060206115278c828d016113b5565b98505060406115388c828d0161141e565b97505060606115498c828d01611433565b965050608061155a8c828d01611433565b95505060a061156b8c828d01611433565b94505060c061157c8c828d01611433565b93505060e061158d8c828d016113f4565b92505061010061159f8c828d016113f4565b9150509295985092959850929598565b6000602082840312156115c157600080fd5b60006115cf848285016113df565b91505092915050565b600080600080608085870312156115ee57600080fd5b60006115fc87828801611448565b945050602061160d87828801611409565b935050604061161e87828801611448565b925050606061162f87828801611448565b91505092959194509250565b61164481611c8d565b82525050565b61165381611c0d565b82525050565b61166281611c0d565b82525050565b61167181611c9f565b82525050565b61168081611cc3565b82525050565b61168f81611c2b565b82525050565b60006116a2601683611bfc565b91507f5472616e7366657220746f6b656e30206661696c6564000000000000000000006000830152602082019050919050565b60006116e2601083611bfc565b91507f4964656e746963616c20746f6b656e73000000000000000000000000000000006000830152602082019050919050565b6000611722601483611bfc565b91507f506f6f6c206372656174696f6e206661696c65640000000000000000000000006000830152602082019050919050565b6000611762601483611bfc565b91507f506f6f6c20616c726561647920637265617465640000000000000000000000006000830152602082019050919050565b60006117a2601683611bfc565b91507f5472616e7366657220746f6b656e31206661696c6564000000000000000000006000830152602082019050919050565b60006117e2601283611bfc565b91507f5a65726f206164647265737320746f6b656e00000000000000000000000000006000830152602082019050919050565b6000611822600d83611bfc565b91507f496e76616c6964207469636b73000000000000000000000000000000000000006000830152602082019050919050565b6101608201600082015161186c600085018261164a565b50602082015161187f602085018261164a565b5060408201516118926040850182611954565b5060608201516118a56060850182611686565b5060808201516118b86080850182611686565b5060a08201516118cb60a0850182611972565b5060c08201516118de60c0850182611972565b5060e08201516118f160e0850182611972565b50610100820151611906610100850182611972565b5061012082015161191b61012085018261164a565b50610140820151611930610140850182611972565b50505050565b61193f81611c38565b82525050565b61194e81611c54565b82525050565b61195d81611c74565b82525050565b61196c81611c74565b82525050565b61197b81611c83565b82525050565b61198a81611c83565b82525050565b60006020820190506119a56000830184611659565b92915050565b60006060820190506119c0600083018661163b565b6119cd6020830185611659565b6119da6040830184611981565b949350505050565b60006060820190506119f76000830186611659565b611a046020830185611659565b611a116040830184611963565b949350505050565b6000604082019050611a2e6000830185611659565b611a3b6020830184611981565b9392505050565b6000602082019050611a576000830184611668565b92915050565b6000602082019050611a726000830184611677565b92915050565b60006020820190508181036000830152611a9181611695565b9050919050565b60006020820190508181036000830152611ab1816116d5565b9050919050565b60006020820190508181036000830152611ad181611715565b9050919050565b60006020820190508181036000830152611af181611755565b9050919050565b60006020820190508181036000830152611b1181611795565b9050919050565b60006020820190508181036000830152611b31816117d5565b9050919050565b60006020820190508181036000830152611b5181611815565b9050919050565b600061016082019050611b6e6000830184611855565b92915050565b6000602082019050611b896000830184611936565b92915050565b6000602082019050611ba46000830184611945565b92915050565b6000606082019050611bbf6000830186611963565b611bcc6020830185611659565b611bd96040830184611945565b949350505050565b6000602082019050611bf66000830184611981565b92915050565b600082825260208201905092915050565b6000611c1882611c54565b9050919050565b60008115159050919050565b60008160020b9050919050565b60006fffffffffffffffffffffffffffffffff82169050919050565b600073ffffffffffffffffffffffffffffffffffffffff82169050919050565b600062ffffff82169050919050565b6000819050919050565b6000611c9882611ce7565b9050919050565b6000611caa82611cb1565b9050919050565b6000611cbc82611c54565b9050919050565b6000611cce82611cd5565b9050919050565b6000611ce082611c54565b9050919050565b6000611cf282611cf9565b9050919050565b6000611d0482611c54565b9050919050565b611d1481611c0d565b8114611d1f57600080fd5b50565b611d2b81611c1f565b8114611d3657600080fd5b50565b611d4281611c2b565b8114611d4d57600080fd5b50565b611d5981611c38565b8114611d6457600080fd5b50565b611d7081611c74565b8114611d7b57600080fd5b50565b611d8781611c83565b8114611d9257600080fd5b5056fea2646970667358221220d7ef1ef5b38f162b305f5e478fda50ab3605d93d51fe8a88c1733fff61969db564736f6c63430007060033","linkReferences":{}},"methodIdentifiers":{"createPool(address,address,uint24,int24)":"f425a3ce","factory()":"c45a0155","mintLiquidity(address,address,uint24,uint256,uint256,uint256,uint256,int24,int24)":"f4b35fb4","posm()":"6f70a7fa"},"id":20}