{
  "abi": [
    {
      "type": "constructor",
      "inputs": [
        {
          "name": "_poolManager",
          "type": "address",
          "internalType": "address"
        },
        {
          "name": "_positionManager",
          "type": "address",
          "internalType": "address"
        },
        {
          "name": "_initialHook",
          "type": "address",
          "internalType": "address"
        }
      ],
      "stateMutability": "nonpayable"
    },
    {
      "type": "function",
      "name": "burnPosition",
      "inputs": [
        {
          "name": "tokenId",
          "type": "uint256",
          "internalType": "uint256"
        },
        {
          "name": "amount0Min",
          "type": "uint128",
          "internalType": "uint128"
        },
        {
          "name": "amount1Min",
          "type": "uint128",
          "internalType": "uint128"
        },
        {
          "name": "deadline",
          "type": "uint256",
          "internalType": "uint256"
        }
      ],
      "outputs": [],
      "stateMutability": "nonpayable"
    },
    {
      "type": "function",
      "name": "createAndMintPosition",
      "inputs": [
        {
          "name": "tokenA",
          "type": "address",
          "internalType": "address"
        },
        {
          "name": "tokenB",
          "type": "address",
          "internalType": "address"
        },
        {
          "name": "fee",
          "type": "uint24",
          "internalType": "uint24"
        },
        {
          "name": "tickSpacing",
          "type": "int24",
          "internalType": "int24"
        },
        {
          "name": "sqrtPriceX96",
          "type": "uint160",
          "internalType": "uint160"
        },
        {
          "name": "tickLower",
          "type": "int24",
          "internalType": "int24"
        },
        {
          "name": "tickUpper",
          "type": "int24",
          "internalType": "int24"
        },
        {
          "name": "liquidity",
          "type": "uint256",
          "internalType": "uint256"
        },
        {
          "name": "amount0Max",
          "type": "uint128",
          "internalType": "uint128"
        },
        {
          "name": "amount1Max",
          "type": "uint128",
          "internalType": "uint128"
        }
      ],
      "outputs": [
        {
          "name": "tokenId",
          "type": "uint256",
          "internalType": "uint256"
        }
      ],
      "stateMutability": "nonpayable"
    },
    {
      "type": "function",
      "name": "decreaseLiquidity",
      "inputs": [
        {
          "name": "tokenId",
          "type": "uint256",
          "internalType": "uint256"
        },
        {
          "name": "liquidity",
          "type": "uint256",
          "internalType": "uint256"
        },
        {
          "name": "amount0Min",
          "type": "uint128",
          "internalType": "uint128"
        },
        {
          "name": "amount1Min",
          "type": "uint128",
          "internalType": "uint128"
        },
        {
          "name": "recipient",
          "type": "address",
          "internalType": "address"
        },
        {
          "name": "deadline",
          "type": "uint256",
          "internalType": "uint256"
        }
      ],
      "outputs": [],
      "stateMutability": "nonpayable"
    },
    {
      "type": "function",
      "name": "defaultHook",
      "inputs": [],
      "outputs": [
        {
          "name": "",
          "type": "address",
          "internalType": "contract IHooks"
        }
      ],
      "stateMutability": "view"
    },
    {
      "type": "function",
      "name": "increaseLiquidity",
      "inputs": [
        {
          "name": "tokenId",
          "type": "uint256",
          "internalType": "uint256"
        },
        {
          "name": "liquidity",
          "type": "uint256",
          "internalType": "uint256"
        },
        {
          "name": "amount0Max",
          "type": "uint128",
          "internalType": "uint128"
        },
        {
          "name": "amount1Max",
          "type": "uint128",
          "internalType": "uint128"
        },
        {
          "name": "deadline",
          "type": "uint256",
          "internalType": "uint256"
        }
      ],
      "outputs": [],
      "stateMutability": "nonpayable"
    },
    {
      "type": "function",
      "name": "owner",
      "inputs": [],
      "outputs": [
        {
          "name": "",
          "type": "address",
          "internalType": "address"
        }
      ],
      "stateMutability": "view"
    },
    {
      "type": "function",
      "name": "poolManager",
      "inputs": [],
      "outputs": [
        {
          "name": "",
          "type": "address",
          "internalType": "contract IPoolManager"
        }
      ],
      "stateMutability": "view"
    },
    {
      "type": "function",
      "name": "positionManager",
      "inputs": [],
      "outputs": [
        {
          "name": "",
          "type": "address",
          "internalType": "contract IPositionManager"
        }
      ],
      "stateMutability": "view"
    },
    {
      "type": "function",
      "name": "renounceOwnership",
      "inputs": [],
      "outputs": [],
      "stateMutability": "nonpayable"
    },
    {
      "type": "function",
      "name": "transferOwnership",
      "inputs": [
        {
          "name": "newOwner",
          "type": "address",
          "internalType": "address"
        }
      ],
      "outputs": [],
      "stateMutability": "nonpayable"
    },
    {
      "type": "function",
      "name": "updateDefaultHook",
      "inputs": [
        {
          "name": "_newHook",
          "type": "address",
          "internalType": "address"
        }
      ],
      "outputs": [],
      "stateMutability": "nonpayable"
    },
    {
      "type": "event",
      "name": "DefaultHookUpdated",
      "inputs": [
        {
          "name": "oldHook",
          "type": "address",
          "indexed": true,
          "internalType": "address"
        },
        {
          "name": "newHook",
          "type": "address",
          "indexed": true,
          "internalType": "address"
        }
      ],
      "anonymous": false
    },
    {
      "type": "event",
      "name": "OwnershipTransferred",
      "inputs": [
        {
          "name": "previousOwner",
          "type": "address",
          "indexed": true,
          "internalType": "address"
        },
        {
          "name": "newOwner",
          "type": "address",
          "indexed": true,
          "internalType": "address"
        }
      ],
      "anonymous": false
    },
    {
      "type": "event",
      "name": "PoolCreated",
      "inputs": [
        {
          "name": "creator",
          "type": "address",
          "indexed": true,
          "internalType": "address"
        },
        {
          "name": "token0",
          "type": "address",
          "indexed": true,
          "internalType": "address"
        },
        {
          "name": "token1",
          "type": "address",
          "indexed": true,
          "internalType": "address"
        },
        {
          "name": "poolId",
          "type": "bytes32",
          "indexed": false,
          "internalType": "PoolId"
        },
        {
          "name": "tick",
          "type": "int24",
          "indexed": false,
          "internalType": "int24"
        },
        {
          "name": "fee",
          "type": "uint24",
          "indexed": false,
          "internalType": "uint24"
        },
        {
          "name": "tickSpacing",
          "type": "int24",
          "indexed": false,
          "internalType": "int24"
        },
        {
          "name": "hook",
          "type": "address",
          "indexed": false,
          "internalType": "address"
        }
      ],
      "anonymous": false
    },
    {
      "type": "event",
      "name": "PositionBurned",
      "inputs": [
        {
          "name": "caller",
          "type": "address",
          "indexed": true,
          "internalType": "address"
        },
        {
          "name": "tokenId",
          "type": "uint256",
          "indexed": true,
          "internalType": "uint256"
        },
        {
          "name": "amount0Min",
          "type": "uint128",
          "indexed": false,
          "internalType": "uint128"
        },
        {
          "name": "amount1Min",
          "type": "uint128",
          "indexed": false,
          "internalType": "uint128"
        }
      ],
      "anonymous": false
    },
    {
      "type": "event",
      "name": "PositionLiquidityDecreased",
      "inputs": [
        {
          "name": "caller",
          "type": "address",
          "indexed": true,
          "internalType": "address"
        },
        {
          "name": "tokenId",
          "type": "uint256",
          "indexed": true,
          "internalType": "uint256"
        },
        {
          "name": "liquidity",
          "type": "uint256",
          "indexed": false,
          "internalType": "uint256"
        },
        {
          "name": "amount0Min",
          "type": "uint128",
          "indexed": false,
          "internalType": "uint128"
        },
        {
          "name": "amount1Min",
          "type": "uint128",
          "indexed": false,
          "internalType": "uint128"
        },
        {
          "name": "recipient",
          "type": "address",
          "indexed": false,
          "internalType": "address"
        }
      ],
      "anonymous": false
    },
    {
      "type": "event",
      "name": "PositionLiquidityIncreased",
      "inputs": [
        {
          "name": "caller",
          "type": "address",
          "indexed": true,
          "internalType": "address"
        },
        {
          "name": "tokenId",
          "type": "uint256",
          "indexed": true,
          "internalType": "uint256"
        },
        {
          "name": "liquidity",
          "type": "uint256",
          "indexed": false,
          "internalType": "uint256"
        },
        {
          "name": "amount0Max",
          "type": "uint128",
          "indexed": false,
          "internalType": "uint128"
        },
        {
          "name": "amount1Max",
          "type": "uint128",
          "indexed": false,
          "internalType": "uint128"
        }
      ],
      "anonymous": false
    },
    {
      "type": "event",
      "name": "PositionMinted",
      "inputs": [
        {
          "name": "receiver",
          "type": "address",
          "indexed": true,
          "internalType": "address"
        },
        {
          "name": "tokenId",
          "type": "uint256",
          "indexed": true,
          "internalType": "uint256"
        },
        {
          "name": "token0",
          "type": "address",
          "indexed": false,
          "internalType": "address"
        },
        {
          "name": "token1",
          "type": "address",
          "indexed": false,
          "internalType": "address"
        },
        {
          "name": "tickLower",
          "type": "int24",
          "indexed": false,
          "internalType": "int24"
        },
        {
          "name": "tickUpper",
          "type": "int24",
          "indexed": false,
          "internalType": "int24"
        },
        {
          "name": "liquidity",
          "type": "uint256",
          "indexed": false,
          "internalType": "uint256"
        }
      ],
      "anonymous": false
    },
    {
      "type": "error",
      "name": "OwnableInvalidOwner",
      "inputs": [
        {
          "name": "owner",
          "type": "address",
          "internalType": "address"
        }
      ]
    },
    {
      "type": "error",
      "name": "OwnableUnauthorizedAccount",
      "inputs": [
        {
          "name": "account",
          "type": "address",
          "internalType": "address"
        }
      ]
    }
  ],
  "bytecode": {
    "object": "0x60c0346101d357601f61128438819003918201601f19168301916001600160401b038311848410176101d7578084926060946040528339810103126101d357610047816101eb565b61005f6040610058602085016101eb565b93016101eb565b9133156101c0575f8054336001600160a01b0319821681178355604051949290916001600160a01b0316907f8be0079c531659141344cd1fd0a4f28419497f9722a3daafe3b4186f6b6457e09080a36001600160a01b031691821561017e57506001600160a01b03169081156101395760805260a052600180546001600160a01b0319166001600160a01b039290921691909117905560405161108490816102008239608051818181610135015261047f015260a05181818161022d0152818161060301528181610844015281816109980152610c270152f35b60405162461bcd60e51b815260206004820152601860248201527f496e76616c696420706f736974696f6e206d616e6167657200000000000000006044820152606490fd5b62461bcd60e51b815260206004820152601460248201527f496e76616c696420706f6f6c206d616e616765720000000000000000000000006044820152606490fd5b631e4fbdf760e01b5f525f60045260245ffd5b5f80fd5b634e487b7160e01b5f52604160045260245ffd5b51906001600160a01b03821682036101d35756fe6080806040526004361015610012575f80fd5b5f905f3560e01c9081633d1250b714610d7d575080634f0e68b514610b4d57806361f88c73146109375780636b491360146108cd578063715018a614610873578063791b98bc1461082e5780638da5cb5b14610807578063c8dfbf611461033f578063d9ab38a114610164578063dc4c90d31461011f5763f2fde38b14610097575f80fd5b3461011c57602036600319011261011c576100b0610dcc565b6100b8611028565b6001600160a01b031680156101085781546001600160a01b03198116821783556001600160a01b03167f8be0079c531659141344cd1fd0a4f28419497f9722a3daafe3b4186f6b6457e08380a380f35b631e4fbdf760e01b82526004829052602482fd5b80fd5b503461011c578060031936011261011c576040517f00000000000000000000000000000000000000000000000000000000000000006001600160a01b03168152602090f35b503461011c57608036600319011261011c576004356024356001600160801b03811680910361031157610195610da0565b604051600360f81b6020820152600181526101b1602182610dfe565b6040805191906101c18184610dfe565b6001835286929190601f1901835b8181106103155750506001600160801b036040519487602087015286604087015216938460608201526080808201528360a082015260a0815261021360c082610dfe565b61021c83610e5a565b5261022682610e5a565b50604051917f00000000000000000000000000000000000000000000000000000000000000006001600160a01b03169161027891849161026a919060208401610f57565b03601f198101845283610dfe565b803b156103115760405163dd46508f60e01b815291839183918290849082906102a8906064359060048401610fc9565b03925af18015610306576102ed575b505060405191825260208201527f35ecb73605c2b1d088f232c3668da712f7720a0df21d59365d3494d00b1791d660403392a380f35b816102f791610dfe565b61030257835f6102b7565b8380fd5b6040513d84823e3d90fd5b8280fd5b60606020858301810191909152899550016101cf565b634e487b7160e01b5f52604160045260245ffd5b503461011c5761014036600319011261011c5761035a610dcc565b6024356001600160a01b03811690819003610311576044359262ffffff841680940361011c57606435908160020b80920361011c576084356001600160a01b03811695908690036108035760a435918260020b80930361011c5760c435938460020b8095036108035760e4359561010435916001600160801b0383168093036103025761012435986001600160801b038a16809a036107ff576001600160a01b03168281146107ba57828110156107b4575b6001546040516001600160a01b039091169661042782610de2565b6001600160a01b0383811680845290861660208401819052604080850184905260608501879052608085019a909a52985163313b65df60e11b8152909d6104716004830185610fe5565b60a482015260208160c4818b7f00000000000000000000000000000000000000000000000000000000000000006001600160a01b03165af19081156107a957918e918a938a9161075a575b506105df9660a086209260018060a01b03600154169260405194855260020b60208501526040840152606083015260808201527fcf3de467181b918b312bc0acc8cf821b731b7b46f76abd3f8a9fdfe95b9c96f760a03392a4604051600160f91b6020820152600d60f81b6021820152600281529a61053c60228d610dfe565b610544610e20565b95610556604051936020850190610fe5565b8960c08401528a60e08401528b6101008401526101208301526101408201523361016082015261018080820152856101a08201526101a0815261059b6101c082610dfe565b6105a485610e5a565b526105ae84610e5a565b50604080516001600160a01b039283166020820152939091169083015281606081015b03601f198101835282610dfe565b6105e882610e7b565b526105f281610e7b565b50604051631d5e528f60e21b8152967f00000000000000000000000000000000000000000000000000000000000000006001600160a01b031690602089600481855afa98891561074f578499610719575b5061065a9061026a60405194859260208401610f57565b603c42019182421161070557813b1561030257918391610691938360405180968195829463dd46508f60e01b845260048401610fc9565b03925af18015610306576106f0575b602087808a89898989604051948552878501526040840152606083015260808201527f260ffe6002428537217d5ed17692a3decef5de6ee441925525ca6654595f80a060a03392a3604051908152f35b6106fb828092610dfe565b61011c57806106a0565b634e487b7160e01b84526011600452602484fd5b9098506020813d602011610747575b8161073560209383610dfe565b8101031261030257519761065a610643565b3d9150610728565b6040513d86823e3d90fd5b92505092939491506020813d6020116107a1575b8161077b60209383610dfe565b8101031261079d576105df94939289928f9261079690610e9f565b90966104bc565b8780fd5b3d915061076e565b6040513d8a823e3d90fd5b9161040c565b60405162461bcd60e51b815260206004820152601860248201527f546f6b656e73206d75737420626520646966666572656e7400000000000000006044820152606490fd5b8480fd5b5080fd5b503461011c578060031936011261011c57546040516001600160a01b039091168152602090f35b503461011c578060031936011261011c576040517f00000000000000000000000000000000000000000000000000000000000000006001600160a01b03168152602090f35b503461011c578060031936011261011c5761088c611028565b80546001600160a01b03198116825581906001600160a01b03167f8be0079c531659141344cd1fd0a4f28419497f9722a3daafe3b4186f6b6457e08280a380f35b503461011c57602036600319011261011c576108e7610dcc565b6108ef611028565b6001546001600160a01b0391821691829082167feaf83f721e5f9b25e34ed53053b426a9e4f8556665a6f773e61121123b23ba158580a36001600160a01b0319161760015580f35b503461011c5760a036600319011261011c57600435602435610957610da0565b61095f610db6565b84604051816020820152600d60f81b602182015260028152610982602282610dfe565b604051637ba03aad60e01b8152600481018790527f00000000000000000000000000000000000000000000000000000000000000006001600160a01b03169060c081602481855afa92831561074f578693610a82928691610b1d575b5080516020909101516001600160a01b0390811691610a5c91168a610a498d6105d18c610a09610e20565b9b60405195869460208601926001600160801b039290839160c096938652602086015216604084015216606082015260a060808201525f60a08201520190565b610a5288610e5a565b526105ae87610e5a565b610a6585610e7b565b52610a6f84610e7b565b5061026a60405194859260208401610f57565b803b156103115760405163dd46508f60e01b81529183918391829084908290610ab2906084359060048401610fc9565b03925af1801561030657610b08575b50506001600160801b0380926040519485521660208401521660408201527f5d6e8df35254ba290f269ad83138912c2825f2b3b00ee3312a56b141b4118be260603392a380f35b81610b1291610dfe565b6107ff57845f610ac1565b610b3f915060c03d60c011610b46575b610b378183610dfe565b810190610ead565b505f6109de565b503d610b2d565b5034610d595760c0366003190112610d5957600435602435610b6d610da0565b610b75610db6565b6084356001600160a01b0381169290839003610d5957604051600160f81b6020820152601160f81b602182015260028152610bb1602282610dfe565b610bb9610e20565b60408051602081018990529081018790526001600160801b0380851660608301528516608082015260a0808201525f60c0820152909190610bfd8160e081016105d1565b610c0683610e5a565b52610c1082610e5a565b50604051637ba03aad60e01b8152600481018890527f00000000000000000000000000000000000000000000000000000000000000006001600160a01b03169160c082602481865afa8015610d4e57610ca4925f91610d5d575b508051602091820151604080516001600160a01b039384169481019490945291169082015260608082018990528152610a5c608082610dfe565b803b15610d595760405163dd46508f60e01b8152915f918391829084908290610cd49060a4359060048401610fc9565b03925af18015610d4e57610d2f575b50906001600160801b03809260405195865216602085015216604083015260608201527f948c38ccb472a1c84c37d856f2fa1206454d81ca58a97036040828a6e2aca43560803392a380f35b6001600160801b03929196505f610d4591610dfe565b5f959091610ce3565b6040513d5f823e3d90fd5b5f80fd5b610d76915060c03d60c011610b4657610b378183610dfe565b505f610c6a565b34610d59575f366003190112610d59576001546001600160a01b03168152602090f35b604435906001600160801b0382168203610d5957565b606435906001600160801b0382168203610d5957565b600435906001600160a01b0382168203610d5957565b60a0810190811067ffffffffffffffff82111761032b57604052565b90601f8019910116810190811067ffffffffffffffff82111761032b57604052565b60405160609190610e318382610dfe565b6002815291601f1901825f5b828110610e4957505050565b806060602080938501015201610e3d565b805115610e675760200190565b634e487b7160e01b5f52603260045260245ffd5b805160011015610e675760400190565b51906001600160a01b0382168203610d5957565b51908160020b8203610d5957565b8092910360c08112610d595760a013610d5957604051610ecc81610de2565b610ed583610e8b565b8152610ee360208401610e8b565b6020820152604083015162ffffff81168103610d59576040820152610f0a60608401610e9f565b60608201526080830151906001600160a01b0382168203610d595760a091608082015292015190565b805180835260209291819084018484015e5f828201840152601f01601f1916010190565b90610f6a90604083526040830190610f33565b906020818303910152815180825260208201916020808360051b8301019401925f915b838310610f9c57505050505090565b9091929394602080610fba600193601f198682030187528951610f33565b97019301930191939290610f8d565b929190610fe0602091604086526040860190610f33565b930152565b80516001600160a01b03908116835260208083015182169084015260408083015162ffffff169084015260608083015160020b9084015260809182015116910152565b5f546001600160a01b0316330361103b57565b63118cdaa760e01b5f523360045260245ffdfea2646970667358221220c2ff9f47b2b8f0fc8580c24e354336b90b7c05e59ed07aa32d3638a0ba05d79d64736f6c634300081a0033",
    "linkReferences": {}
  },
  "methodIdentifiers": {
    "burnPosition(uint256,uint128,uint128,uint256)": "d9ab38a1",
    "createAndMintPosition(address,address,uint24,int24,uint160,int24,int24,uint256,uint128,uint128)": "c8dfbf61",
    "decreaseLiquidity(uint256,uint256,uint128,uint128,address,uint256)": "4f0e68b5",
    "defaultHook()": "3d1250b7",
    "increaseLiquidity(uint256,uint256,uint128,uint128,uint256)": "61f88c73",
    "owner()": "8da5cb5b",
    "poolManager()": "dc4c90d3",
    "positionManager()": "791b98bc",
    "renounceOwnership()": "715018a6",
    "transferOwnership(address)": "f2fde38b",
    "updateDefaultHook(address)": "6b491360"
  },
  "id": 63
}